:1000000000308A005F280000FF00030E8301A1007A
:100010000A08A0008A010408A2007708A300780853
:10002000A4007908A5007A08A600831383128B1E0A
:100030001B280B192C28220884002308F700240809
:10004000F8002508F9002608FA0020088A00210E89
:100050008300FF0E7F0E09008A110A122F2801303B
:10006000A7070318A80AA808031D3A2827080F3C69
:1000700003185B288B128316051083120514FA30BF
:10008000A90029308400831300080319542806307E
:10009000F800F701F70B4A28F80B49287B30F700E6
:1000A000F70B5028800B4728831605108312051084
:1000B000A801A7018B160B118A110A121B2803082D
:1000C0001F398300A801A70183161F149F141F1551
:1000D0009F1183130108C0390638810083128B16E3
:1000E000C0308B048316051083120510722863003C
:02400E00723B03
:00000001FF
;PIC16F877
;CRC=A7E8  CREATED="07-lip-17 13:08"
