:1000000000308A00F228000029308400000803191B
:10001000172801308D008C018C0B0C288D0B0B28C0
:100020004A308C008C0B12281528800B09280800F8
:100030001030AA008C018F01A70CA60C031C2628E7
:1000400028088C0703188F0A29088F078F0C8C0C3F
:100050008E0C8D0CAA0B1C2808008901831608142D
:1000600083120808A401A3000130A5002508033C61
:10007000031C54282408A7002308A600A9010A305D
:10008000A80018200E08A7000D08A6002508890062
:1000900083160814831208082607A3002708A40063
:1000A0000318A40AA50A362823088D0024088E0008
:1000B00008008D018E018C018F012C08031D63281F
:1000C0002B0803197D281030AD000310A90DAA0DCF
:1000D0008C0D8F0D2C080F02031D70282B080C02AD
:1000E000031C79282B088C02031C8F032C088F0219
:1000F00003148D0D8E0DAD0B65280800A701270890
:10010000033C031C9E282708250784002408AA0016
:100110002308A900AC012608AB0059200C08800078
:100120002408AA002308A900AC012608AB00592026
:100130000E08A4000D08A300A70A7F2808001030AD
:10014000A700A8012808033C031CC8282808033C72
:100150002402031DB12825087F3C0318B128A601FD
:10016000B3282708A600033023078D0028080D02B6
:10017000840000082604A90083168601831229083A
:1001800086000130A90004202708A707A80AA22892
:1001900008000B1DD028900A0319910A0B11D728CB
:1001A00001080B1DD828900A0319910A0B110108A8
:1001B0008C0010088D0011088E008E0C8D0C8C0C9C
:1001C0008E0C8D0C8C0C0800250823028C00240852
:1001D0008F002608031C260F8F020C088D000F08C5
:1001E0008E00602903081F39830091019001831656
:1001F0000108C03907388100831281010B110430D6
:10020000A300FA30A9000420A30B01292D200E0819
:1002100093000D089200FF3094009501073083167B
:1002200085000030860083121A148316851183120C
:100230008511033095071308A4001208A300163097
:10024000A5000A30A6007E201630A3001408A400E2
:100250001508A5009F208316051483120518BD29D3
:100260008316851483128518BD29831605158312FC
:10027000051DBD291A18BD291408FF3C031DBD2901
:100280001A148316851183128515C9200D089E0046
:100290000C089D001E089C001D089B0012081304FA
:1002A00003199429C9200D089C000C089B001C0808
:1002B000A4001B08A3001E08A6001D08A500E42832
:1002C0000E08A0000D089F00A008031D6B291F0841
:1002D0005F3C03188329A008031D72291F085F3C97
:1002E00003187F29013092020030031C0130930271
:1002F00060309F020030031C0130A0026B291C08F3
:100300009E001B089D001308A4001208A3001630CD
:10031000A5000A30A6007E201630A3001408A40011
:100320001508A5009F204E2983168511831285117B
:100330008316051483120518A729831685148312C2
:100340008518A729831605158312051D98292D20C8
:100350000E0893000D0892001308A4001208A300D1
:100360001630A5000A30A6007E201630A30014081F
:10037000A4001508A5009F20632A83160514831284
:100380000518082A831685148312851C082A8316EB
:10039000051583120519082A1A18082A013094072E
:1003A0001A141408033C0318072AFF30940013089A
:1003B000A4001208A3001630A5000A30A6007E2073
:1003C000A1012108033C031C022A2108033C163E1C
:1003D00084000008A3000B088C008B1321088900FF
:1003E000230888008316081555308900AA30890033
:1003F00088148818F929081183120C088C1B8B00AB
:10040000A10AE1292D200E0893000D089200632A0D
:10041000831605148312051C542A8316851483122F
:100420008518542A8316051583120519542A1A189B
:10043000542A1408FF3C0319542A1A1416301407BE
:10044000A30016301407840001300007A40023081D
:100450008400240880001630140784000008093C3A
:100460000318362A163014078400800193011908F6
:1004700092000330A200A2080319532A1308A70010
:100480001208A600A9010A30A80018200130220293
:10049000163E840000080D0792000E089300031812
:1004A000930AA2033B2A632A8316051483120518B4
:1004B000632A8316851483128518632A831605150B
:0A04C0008312051D1A1019296300AC
:02400E00F13F80
:00000001FF
;PIC16F84A
;CRC=4280  CREATED="18-lis-14 17:48"
