:1000000010308A0000280000FF00030E8301A100C9
:100010000A08A0008A010408A2007708A300780853
:10002000A4007908A5007A08A60003170D08031399
:10003000A70003170F080313A80003170C080313E6
:10004000A90003170E080313AA00831383128C3030
:100050008400801D2D288C194E2822088400230836
:10006000F7002408F8002508F9002608FA002708F8
:1000700003178D000313280803178F0003132908A3
:1000800003178C0003132A0803178E00031320089C
:100090008A00210E8300FF0E7F0E09008A110A12CA
:1000A00080280A108A100A118207003400340034B4
:1000B000003401340034003400340034003401349E
:1000C000003400340134003400340034003400348F
:1000D0000134532A4F283A3665337410653764105B
:1000E000F232E131E8326400532A4F283A39E933D9
:1000F000683AA0326E322039E53063346532000050
:100100008316941A8B288312CF018316141D8B2813
:100110008312CF17831683124F08CF0A8316D90094
:1001200059087F3C031CA428303083124E078400FA
:10013000831314138316141C9B288312130814169C
:1001400080000130CE07831659087F3C0318E7284A
:1001500083128615F73083168600F730860000304C
:100160008312061801308316DA00F730860000305B
:10017000831286180130F7000310F70D77088316F5
:10018000DA07F73086000030831206190130F700D5
:10019000F70DF70DFC30F705770883165A07F800BE
:1001A0007808DA005A08DB008312130883165B080C
:1001B0008312930014168C1183161418DD28F8018D
:1001C000111FF80A83128611F73083168600141E59
:1001D000EB2812309300831256158C118A110A12E3
:1001E0002D2848344D3449345F34733474346534C5
:1001F00070347034653472345F346D346F347434F9
:100200006F3472345F34633461346C346934623413
:100210007234613474346F3472345F3466347734DA
:100220005F34763430345F34313420343034353414
:100230002D34703461349F342D34313437342034CC
:10024000303439343A34343433343A343234363462
:100250000034533A61397410C8264900631D303C9C
:10026000252C20006336E530721061366C10F030BA
:10027000E33573006336E5307210A53A2038E1317A
:100280006B178006D332741061366C10F030E33592
:100290007310E337EC377539A0127500D332741040
:1002A000F030E335A0127510E337EC377539A01242
:1002B0007500423669376B1061366C10F030E335EB
:1002C0007310E337EC3775393A10A53A201E2D1F0D
:1002D000A0127500423669376B10A53A2038E1311B
:1002E0006B10E337EC3775393A10A53A201E2D1FF5
:1002F000A0127500D3327410E230E335EC34673469
:100300007410A53A0001CD37F4377210E737F4378F
:10031000A012AE19E6122500CD37F4377210E73778
:10032000F437A012AE19E6122500C320CC244229CE
:10033000412A4500C8264910F7307310E23AF339D4
:10034000791061376410E43720376F3A203AEF377D
:100350006B1069196310E430F430A1102110000112
:1003600043346137E732A036E33AA034B231A032E9
:10037000EE33693765102724CD24DF396F33F43B22
:100380006139E52FE432EC30F92FED392710F030E8
:10039000F230ED32F4327200CE3774106B37EF3B2F
:1003A0006E00CE327710E737F4373A102526750005
:1003B000C330EC346239613AE9376E10E634EE341A
:1003C00073346532A03B693A68103010BC162D1F9B
:1003D000A012CC3AA039F432F0390001C33072399E
:1003E000E930E732A039F43770386532A030741044
:1003F00025267510733A65382E00473A53170D05B8
:10040000000083168613831286130830F800082A2A
:100410000000F8171B2AF8138316C80C8312031860
:100420008617031C861378171B2A7813F80B0C2ADF
:10043000192A0000861725308400840B1D2A00002D
:10044000F81B0B2A781B152A08000B088316BB0023
:1004500083128B13831603178C170C1400000000F3
:100460000313BB1F362A83128B17831683120317BD
:100470008C0803195E2A0D0883160313BB00831230
:1004800003170F0883160313BC00831203170C080D
:1004900083160313C8008312012283163B088312BC
:1004A00003178D00831603133C08831203178F0074
:1004B0008D0A03198F0A0313252A031703138A11C0
:1004C0000A165C280D308316C800831201220A30F8
:1004D0008316C800831201220800BC3084008313F5
:1004E00000080319802A0630F800F701F70B762A76
:1004F000F80B752A7B30F700F70B7C2A800B732AE8
:10050000080088176B30831688000130BC00831206
:100510006D220130F80008008D2A8E2A00006B3011
:100520008316880083120811952A962A0000080075
:1005300083163C08003A83120319A52A013A0319CD
:10054000C62A033A0319E82AEE2A01308316BB02B1
:10055000BB08031DAD2A0430BB00C1014108033CA8
:10056000031CC42ABD304107840083133B0DF700F0
:10057000F70DFC30F7057708410783125120F8008A
:1005800080008316C10AAE2A8312EE2A0130831638
:10059000BB073B08043C0318CF2A0130BB00C20153
:1005A0004208033C031CE62ABD3042078400831343
:1005B0003B0DF700F70DFC30F70577084207831273
:1005C0005120F80080008316C20AD02A8312EE2A36
:1005D0008316BD01BE01BF01C00183128316BD0891
:1005E000031DF62A83128712F82A831683128716B0
:1005F000183083168700BE08031D022B83120713D1
:10060000042B831683120717183083168700BF0840
:10061000031D0E2B83128713102B8316831287174B
:10062000183083168700C008031D1A2B8312081286
:100630001C2B8316831208166B3083168800202B20
:10064000212B00003B08F80083120800272B282BE1
:1006500000006B3083168800831208152F2B302B77
:10066000000008008316BC01BB013B08F7003C08F2
:10067000F800F9010310F70DF80DF90D0310F70D4F
:10068000F80DF90D0310F70DF80DF90D0310F70D26
:10069000F80DF90D78088312AC007908AD007708E1
:1006A000810008000B088316BB0083128B1383168E
:1006B00003178C170C14000000000313BB1F632BDF
:1006C00083128B178316831203170C087F390319C3
:1006D000C42B83160313BB00831203170D08831664
:1006E0000313BC00831203170F0883160313BD0006
:1006F0003B08C8008312012283163C0883120317AB
:100700008D00831603133D08831203178F00031314
:100710000B088316BE0083128B13831603178C17E6
:100720000C14000000000313BE1F992B83128B17BB
:100730008316831203170C0D0E0D7F390319C42B7A
:1007400083160313BB00831203170D0883160313CC
:10075000BC00831203170F0883160313BD003B0868
:10076000C8008312012283163C08831203178D00F0
:10077000831603133D08831203178F008D0A031994
:100780008F0A0313522B0317031308008C225808F7
:100790008316BB000230BC00831298227808D80070
:1007A000262301308316BC0083126D2232238C2253
:1007B00008006B30831688008312081FFA2B8C22E6
:1007C00058088316BB000130BC00831298227808B9
:1007D000D800262332230130D90700300318013016
:1007E000DA07003003180130DB070030031801304E
:1007F000DC07042C743003178D0000308F000313C6
:10080000522362226222C623080088136B308316AB
:1008100088000130BC0083126D220030F80008000F
:10082000831694018312CE01103083169300831235
:10083000080083164008013A83120319262C033A54
:100840000319302C013A03193A2C432CD1012A30D8
:10085000D000D3012830D200D5012930D400432C58
:10086000D1014830D000D3012B30D200D5012D303A
:10087000D400432CD1013830D000D3014930D2000C
:10088000D5014A30D4000800831641080739F70023
:10089000410CF800F80CF80C1F30F80578084307F5
:1008A0008400831344188317F801F80AF70A592CB7
:1008B000F80DF70B582CC2080319612C7808800436
:1008C000642CF80978088005831208008316400814
:1008D000013903197E2C831250088316C100C2010E
:1008E000C401C3018312442450088316C100C2010D
:1008F000C4018030C30083124424831640080239A7
:100900000319952C831252088316C100C201C40139
:10091000C3018312442452088316C100C201C401DA
:100920008030C3008312442483164008043903191D
:10093000AC2C831254088316C100C201C401C30148
:100940008312442454088316C100C201C4018030BC
:10095000C3008312442483168312080083163E08C2
:10096000C0008312192483163F0880390319BE2C56
:100970003F08C000831266240C2D83168730C00008
:100980008312662483163F08C0004008013903190A
:10099000DD2C831250088316C1000130C200C4014F
:1009A000C3018312442450088316C100C201C4014C
:1009B0008030C3008312442483164008023903198F
:1009C000F52C831252088316C1000130C200C40105
:1009D000C3018312442452088316C100C201C4011A
:1009E0008030C3008312442483164008043903195D
:1009F0000D2D831254088316C1000130C200C401BA
:100A0000C3018312442454088316C100C201C401E7
:100A10008030C300831244248316831208000130FF
:100A20008316BE003B08BF008312AE24023083163B
:100A3000BE003B08BF008312AE2403308316BE0005
:100A40003B08BF008312AE2408000B088316BC00CD
:100A500083128B13831603178C170C1400000000ED
:100A60000313BC1F362D83128B17831603186F2DAB
:100A7000831203170C087F3983160313BC008312FB
:100A800003170D0883160313BD00831203170F0805
:100A900083160313BE003C08C8008312012283168C
:100AA0003D08831203178D00831603133E0883123B
:100AB00003178F0003130B088316BF0083128B13D9
:100AC000831603178C170C14000000000313BF1FBC
:100AD0006C2D83128B178316BB0B6F2D9D2D8312EC
:100AE00003170C0D0E0D7F3983160313BC00831200
:100AF00003170D0883160313BD00831203170F0895
:100B000083160313BE003C08C8008312012283161B
:100B10003D08831203178D00831603133E088312CA
:100B200003178F008D0A03198F0A0310831603130E
:100B3000BB0B9B2D9D2D8312252D83120800831640
:100B4000BC1BB42D0F30F7003B0EF7050A307702BF
:100B50000318AD2D3030F707AF2D3C08F7077708A5
:100B6000C8008312012283160F30BB050A303B02F6
:100B70000318BC2D3030BE2DBC133C08BB073B080E
:100B8000C800831201228A110A16072983163B081E
:100B9000C0008312192487308316C0008312662494
:100BA000080001308316BB008312C625023083166D
:100BB000BB008312C62503308316BB008312C625F3
:100BC0008A110A163A2983163E08F8013D020318D5
:100BD000EC2D3D08F700F82DF7010830BF00BD0DE2
:100BE000F70D3E0877020318F700F80DBF0BEF2D45
:100BF00083120800780883163B08BD006430BE00ED
:100C00008312E32577088316BB0078083030031D74
:100C1000102EBC1C192EBC19192E3C1A2030132E74
:100C2000BC113C123C14F8077808C800831201225A
:100C300083163B08BD000A30BE008312E325770807
:100C40008316BB0078083030031D2C2EBC19322EC1
:100C50003C1C322E3C1A2030F8077808C80083125A
:100C6000012283163030BB073B08C80083120122E3
:100C7000080083163B08F7003C08F800F901031050
:100C8000F70DF80DF90D0310F70DF80DF90D031020
:100C9000F70DF80DF90D78088312AE007908AF0052
:100CA00077088F008E010800831648080319C52EA7
:100CB000D0004C080319C52ED0070318662E7F30CC
:100CC000D002031CC52E0319C52E6A2E8130D00711
:100CD0000318C52E5008F700F801F901FA01490878
:100CE000D400D4174A08D3004B08D2001830D000E3
:100CF000D101521C932E4F08FA07031C852EF90AC6
:100D0000031D852EF80A0319D1174E08F907031C95
:100D10008C2EF80A0319D1174D08CA00CA174A08C1
:100D2000F8070318D117D10DF80CF90CFA0CD40CF4
:100D3000D30CD20C0310D00B782E0130F707031818
:100D4000C52EF81BAA2ED40DFA0DF90DF80DF703D8
:100D50000319C52ED41FBB2EFA0A031DBB2EF90A98
:100D6000031DBB2EF80A031DBB2EF80CF90CFA0C60
:100D7000F70A0319C52E4908D1004D08D106D11F25
:100D8000C32EF817C92EF813C92EF701F801F9017F
:100D9000FA018312080083164808B63CC800FA011D
:100DA0004908CC00C9170310C90CCA0CCB0CFA0CAB
:100DB000F90CF80CF70CC80BD32ECC1FEA2EF70950
:100DC000F809F909FA09F70A0319F80A0319F90ADF
:100DD0000319FA0A831208008318F12ED030840018
:100DE0008313F701F801F901FA018316D001D1014B
:100DF000D201D3014F084E044D044C040319302F87
:100E00002030D4000310C80DC90DCA0DCB0DD00D74
:100E1000D10DD20DD30D4F085302031D192F4E08CB
:100E20005202031D192F4D085102031D192F4C08A2
:100E30005002031C2A2F4C08D0024D08031C4D0FF2
:100E4000D1024E08031C4E0FD2024F08031C4F0F55
:100E5000D3020314F70DF80DF90DFA0DD40B022F80
:100E600050088000840A51088000840A52088000DB
:100E7000840A5308800083120800B630F700FA0194
:100E8000F901F80183163F08400441044204031DA0
:100E90004B2FF701582F0310F81B572FBF0DC00D14
:100EA000C10DC20DFA0DF90DF80DF70B4B2FF8130C
:100EB000831208000F08FA000E08F7000F087A02E4
:100EC000031D5A2F77080C1C722FAE0A0319AF0AA4
:100ED0000C100F08FA000E08F7000F087A02031D25
:100EE000692F77087A08F7002E08F8002F08F90014
:100EF000F90CF80CF70CF90CF80CF70CF90CF80CD1
:100F0000F70C78088316BC007708BB00BC08031DEB
:100F10008D2F3B08E43C0318972F8312D614013021
:100F2000D6068316BC01BB018312392683168312B1
:100F30008A110A167E2CD61CAE2F561CA72F83169C
:100F40003B08BE003C08BF008312AE24AE2F8316C0
:100F50003B08BE003D08BF008312AE240800010814
:100F60000B1DB72FAC0A0319AD0A0B110108F700CE
:100F70002C08F8002D08F900F90CF80CF70CF90C06
:100F8000F80CF70CF90CF80CF70CF90CF80CF70C42
:100F90008A110A16392D8E30F70083163E08F800A4
:100FA0003D08F900FA01F808031DE02F7908F80060
:100FB000F9010830F702F808031DE02FF701E82FC8
:100FC0000310F81BE72FF90DF80DF703E02FF813C6
:080FD00083128A110A16462D56
:1010000004088316C0003F08C200031924283E08C4
:10101000CB003D08CA003C08C9003B08C800CF010E
:10102000CE012030CD008230CC008A1183125426AC
:101030008A157A088316BE007908BD007808BC00BE
:101040007708BB00C20B07283E08CB003D08CA004A
:101050003C08C9003B08C8008A118312CB268A15B8
:101060007A088316BE007908BD007808BC007708AE
:10107000BB00BE1F4828C003C016BB09BC09BD0980
:10108000BE09BB0A0319BC0A0319BD0A0319BE0A2B
:101090003B30C7009A30C600CA30C500C4010A30D0
:1010A000C2003F080319C00A8314BB3084008313B5
:1010B0003E08CB003D08CA003C08C9003B08C800F8
:1010C0004708CF004608CE004508CD004408CC00B4
:1010D0008A118312EC268A157808F708031D8728E1
:1010E00083163F0A4202031D77288312872840088F
:1010F00003198A280F394202031980280318CA28C5
:10110000C01BCA28401B8A282030C22883122030E6
:101110008316C005C01E9C28C0123F08031DC003D3
:101120007708C0002D30C8008A11831201228A1569
:1011300083164008F700C0013F084202031DAE2895
:101140007708C0002E30C8008A11831201228A1548
:1011500083164008F7002030C00500303030C01E34
:10116000C228C0123F08031DC0037708C0002D30FD
:10117000C8008A11831201228A1583164008F700DD
:10118000C0013030F7077708C8008A1183120122A6
:101190008A15831683104708CB004608CA00450805
:1011A000C9004408C800CF01CE01CD010A30CC00EF
:1011B0008A118312EC268A157A088316C7007908EB
:1011C000C6007808C5007708C400C20B54288312F3
:1011D000080083164B080319AF29D7004F080319DD
:1011E000AF29D702031CF9287F30D7070318AF298E
:1011F000FF288130D702031CAF290319AF295708F4
:10120000F700F801F901FA01D6014C08D500D5170D
:101210004D08D4004E08D3001930D7005208D3022D
:10122000031822290130D40203182229D5020318F9
:101230002229D60203182229D60AD50AD40A52082E
:10124000D30754295108D40203183D290130D5028F
:1012500003183D29D60203183D29D60AD50A51089C
:10126000D4075208D307031C5429D40A031D542958
:10127000D50A031D5429D60A542950088038D502AE
:10128000031853290130D60203185329D60A5008EF
:101290008038D5075108D407031C3129D50A031D0E
:1012A0003129D60A31297A14D70B5729622903101C
:1012B000D30DD40DD50DD60D0310FA0DF90DF80D83
:1012C000D80D0E29581C6A290310F80CF90CFA0CD9
:1012D000D80C6D29F7030319AF29D81B96290310E1
:1012E000D30DD40DD50DD60D5208D3020318822983
:1012F0000130D40203188229D50203188229D602AC
:10130000031CA5295108D40203188D290130D502E8
:1013100003188D29D602031CA52950088038D50250
:10132000031896290130D602031CA529FA0A031DC9
:10133000A529F90A031DA529F80A031DA529F70AFD
:101340000319AF29F80CF90CFA0C4C08D700500817
:10135000D706D71FAD29F817B329F813B329F7011A
:10136000F801F901FA018312080083164608CE003D
:101370004508CD004408CC004308CB00D201D10180
:10138000D0018030CF008312E920831083164208F9
:10139000CA004108C9004008C8003F08C7007A08D1
:1013A000CE007908CD007808CC007708CB008030DB
:1013B0008318CC06D101D2014808D0004C08D006D1
:1013C00047080319C72ACF00F7004B080319D02A92
:1013D000CF0203196C2A031C2A2A4C08D500D51702
:1013E0004D08D4004E08D300D2010310D50CD40C04
:1013F000D30CD20CCF0BF429D01F012A5114E42AAC
:1014000051104F105116CA3084008313F92A51121B
:10141000D01B142A4F1C1F2AD50CD40CD30CD20C71
:10142000F70A0319DF2A1F2AD51B222A0310D20D1F
:10143000D30DD40DD50DF7030319DF2A142A511744
:101440008C2A51134808D000D01F282AD517D82A33
:10145000D513D82A4B08CF00F7004708CF02480819
:10146000D500D5174908D4004A08D300D20103108B
:10147000D50CD40CD30CD20CCF0B362AD01F432A58
:10148000D114E42AD1104F10D116CE30840083132A
:10149000F92AD112D01B562A4F1C612AD50CD40C24
:1014A000D30CD20CF70A0319DF2A612AD51B642A50
:1014B0000310D20DD30DD40DD50DF7030319DF2A78
:1014C000562AD1178C2AD1134C08D000D01F6A2A73
:1014D000D517D82AD513D82A4C08D500D5174D08CA
:1014E000D4004E08D300D01F792AD5135115E42A11
:1014F0005111D2014F10CA3084008313F92AD01B36
:10150000A22A4808D0004F1C8C2AD50CD40CD30C2E
:10151000D20CF70A0319DF2AD21F9D2AD30A031D12
:101520009D2AD40A031D9D2AD50A031D9D2AD50C88
:10153000D40CD30CF70A0319DF2A511B212AD11B23
:10154000632AC12A8030D506D51FAA2AE42A4C086E
:10155000D000B72A4808D000D508031DB72AD40800
:10156000031DB72AD308031DB72AF701D82AD51BB4
:10157000C12A0310D20DD30DD40DD50DF70BB72A08
:10158000DF2AD01FC52AD517D82AD513D82A4B0849
:10159000F7004C08D5004D08D4004E08D300D82AD7
:1015A0004708F7004808D5004908D4004A08D30086
:1015B0005508F8005408F9005308FA00172BF701F2
:1015C000F801F901FA01172BD201D309D409D50981
:1015D000D209D20A031DF22AD30A031DF22AD40A21
:1015E0000319D50A5118002AD118422A5119782A0C
:1015F000A72A0008D307031C032BD40A031D032BBF
:10160000D50A03194F1484030008D407031C0B2BBD
:10161000D50A03194F1484030008801F803AD507A8
:1016200003184F14511A072AD11A492A7F2A7A0817
:10163000CA007908C9007808C8007708C7004A08B6
:10164000CE004908CD004808CC004708CB0046082A
:10165000D2004508D1004408D0004308CF008312CF
:10166000E9207A088316CB007908CA007808C900F7
:101670007708C8008A118312CB268A158A110A16A8
:10168000022D04088316BF003B30C6009A30C50007
:10169000CA30C400C3010A30C1008314BB308400C7
:1016A00083133E08CB003D08CA003C08C9003B0834
:1016B000C8004608CF004508CE004408CD004308C6
:1016C000CC008A118312EC268A157808F708031DCE
:1016D000802B83164108013A031D702B8312802B47
:1016E0003F080319822B0F3941020319792B031884
:1016F0008B2BBF1B8B2B3F1B822B2030832B83120A
:101700008316BF013030F7077708C8008A118312AB
:1017100001228A15831683104608CB004508CA00AB
:101720004408C9004308C800CF01CE01CD010A30EA
:10173000CC008A118312EC268A157A088316C6001B
:101740007908C5007808C4007708C300C10B4D2B89
:101750008312080083163E08C5004208C506C51F4F
:10176000B62B03110310BE1B0314E92B3E08C50062
:101770004108C6003D08C6020319C42BC51FE92B4A
:101780000308013A8300E92B4208C6003E08C6025E
:101790000319D02BC51FE92B0308013A8300E92B5D
:1017A0004308C6003F08C6020319DC2BC51FE92BFE
:1017B0000308013A8300E92B4408C6004008C6022A
:1017C0000319E82BC51FE92B0308013A8300E92B15
:1017D000031083128A110A165C2D6B308316880061
:1017E0008312881E152C8A118C228A15580883169C
:1017F000BB00BC018A11831298228A157808D80090
:101800008A1126238A158A1132238A150130D902BA
:101810000030031C0130DA020030031C0130DB020F
:101820000030031C0130DC02272C693003178D00C7
:1018300000308F008A11031352238A158A11622205
:101840008A158A1162228A158A11C6238A15080010
:1020000003081F398300FF30AB00AB152B08831684
:10201000870083122B162B0883168700103093003D
:10202000363083129400831691178312AD01AC01F0
:1020300083160108C03907388100831281010B1112
:10204000AF01AE01B53090008E018F018E010C10F2
:1020500083168613831286170330CF005614E201CD
:10206000E10183161F149F141F1583138312E301CC
:10207000E4016B10EB106B11EB116B12EB12FE0114
:10208000FD01FC01FB018316A301A201A101A00136
:1020900001308312D800DC01DB01DA01D901E00153
:1020A000DF01DE01DD01D701F13003178D000030C3
:1020B0008F000A120313252A0A160A1262220A1630
:1020C000FA308316BC000A1283126D220A160A1215
:1020D00081220A166B1378186B170130F40074080C
:1020E000323C031C7F280A12D9230A1602308316B9
:1020F000BC000A1283126D220A16F40A6F280A1213
:10210000C6230A160A1205240A160A1205240A16FC
:102110006B1378186B1702308316B000FA30BC00CE
:102120000A1283126D220A168316B00B8E280A1229
:10213000831262220A160A1210240A1683168C15BC
:10214000C03083128B0407308316BB000A1283123F
:102150000F250A165611293003178D0001308F0004
:102160000A12031352230A160A1262220A160A12CC
:1021700062220A168316141EC82883124E0BC12829
:10218000C3288316C8280A1210240A16782C83162E
:10219000141E792C83124E08013C031CD12883168F
:1021A000792C8316B1013030B000B3013130B20068
:1021B0000E30F800320884008313331883170008A8
:1021C000F7003008840083133118831777088000E4
:1021D000B00A0319B10AB20A0319B30AF80BDA28D4
:1021E0002E30831203178D0001308F00031004304E
:1021F00083160313BB000A12831225250A16300822
:102200008316BB003730BC000A1283129F2D0A16BA
:1022100020308316C8000A12831201220A160A12FD
:1022200062220A16300803193429013A03194B298E
:10223000033A03199829013A0319C529073A0319E2
:10224000232A013A0319712A033A0319EA2A013AA7
:102250000319142B0F3A03194C2B023A0319302C93
:102260001A3A0319422C642CEB116B11EB106B1012
:102270000A12D12D0A16323003178D0001308F005B
:102280000A12031352230A160A1262220A160A12AB
:1022900062220A16742C3108F3006B1C6529730B3B
:1022A0005329EB105E297308023C031D59296B1159
:1022B0005E297308033C031D5E29EB11EB186529A9
:1022C0006B196529EB1965296B1073088316BB0020
:1022D0000A128312C6250A163A3003178D00013000
:1022E0008F000310063083160313BB000A128312FB
:1022F00025250A1673088316BB001B30BC000A1282
:102300008312FA250A163E3003178D0001308F0024
:102310000310063083160313BB000A12831225250F
:102320000A160A1262220A160A1262220A16742C6D
:102330003208E9006908F200EB116B11EB106B1029
:1023400072088316BB000A1283120F250A16423048
:1023500003178D0001308F0003101530831603130F
:10236000BB000A12831225250A1672088316BB00C9
:102370001B30BC000A128312FA250A160A126222C6
:102380000A160A1262220A16742C3108F300320867
:10239000E9006908F2006B1CE5297308013A03198A
:1023A000D829033A0319DA29013A0319DC29DE296D
:1023B000EB10DE296B11DE29EB11DE29EB18E52984
:1023C0006B19E529EB19E5296B1073088316BE001C
:1023D0007208BF000A128312AE240A164E30031789
:1023E0008D0001308F000310093083160313BB00EA
:1023F0000A12831225250A1673088316BB001B30A8
:10240000BC000A128312FA250A16533003178D00F6
:1024100001308F000314083083160313BB000A1227
:10242000831225250A1672088316BB001B30BC00D8
:102430000A128312FA250A160A1262220A160A12D0
:1024400062220A16742C8316BC01E430BB000A1207
:10245000831239260A1656103208E9003308EA00BA
:102460006908F000EE00EC006A08F100EF00ED00F2
:10247000EB156B15EB146B14593003178D000130FD
:102480008F000310183083160313BB000A12831247
:1024900025250A166C088316BB001B30BC000A12E7
:1024A0008312FA250A16663003178D0001308F005B
:1024B0000310053083160313BB000A12831225256F
:1024C0000A166D088316BB001B30BC000A1283126B
:1024D000FA250A160A1262220A160A1262220A163D
:1024E000742C8316BC01E430BB000A128312392617
:1024F0000A1656106B143108F3003208E90033084D
:10250000EA007308013A03198C2A033A0319922A44
:10251000013A0319982A9E2A6908EC006A08ED001E
:10252000EB149E2A6908EE006A08EF006B159E2ADC
:102530006908F0006A08F100EB159E2A6A3003175B
:102540008D0001308F000310063083160313BB008B
:102550000A12831225250A1673088316BB001B3046
:10256000BC000A128312FA250A166E3003178D007A
:1025700001308F0003100E3083160313BB000A12C4
:10258000831225250A166C088316BB001B30BC007D
:102590000A128312FA250A16763003178D000130CD
:1025A0008F000310053083160313BB000A12831239
:1025B00025250A166D088316BB001B30BC000A12C5
:1025C0008312FA250A160A1262220A160A126222D7
:1025D0000A16742C3108F500F508031DF12A0711BD
:1025E000F22A07151830831687007A3083120317F2
:1025F0008D0001308F0003100E3083160313BB00D3
:102600000A12831225250A1675088316BB001B3093
:10261000BC000A128312FA250A160A1262220A164E
:102620000A1262220A16742C3108FB003208FC00E0
:102630003308FD003408FE006B16833003178D004D
:1026400001308F0003100B3083160313BB000A12F6
:10265000831225250A16893084007E088316BE0061
:102660007D08BD007C08BC007B08BB000330BF00B8
:102670000A128A15831200200A168A112530831641
:10268000C8000A12831201220A160A1262220A16CE
:102690000A1262220A16742C31088316A4008312CF
:1026A00032088316A500831233088316A60083120E
:1026B00034088316A700831235088316A8008312F6
:1026C00036088316A900831237088316AA008312DE
:1026D00038088316AB00831239088316AC008312C6
:1026E0003A088316AD0083123B088316AE008312AE
:1026F0003C088316AF0024082C02F7002D08F800D0
:102700002508031C250FF8022E08F9002608031CD3
:10271000260FF9022F08FA002708031C270FFA02D8
:102720007A08C2007908C1007808C0007708BF00A5
:102730000A1283123D270A167A088316B300790815
:10274000B2007808B1007708B00024082802F7002A
:102750002908F8002508031C250FF8022A08F900AB
:102760002608031C260FF9022B08FA002708031C71
:10277000270FFA027A08C2007908C1007808C00061
:102780007708BF000A1283123D270A168316330802
:10279000CE003208CD003108CC003008CB007A08DA
:1027A000D2007908D1007808D0007708CF000A124B
:1027B0008A158312E9200A168A117A088316B30053
:1027C0007908B2007808B1007708B0003308CB0070
:1027D0003208CA003108C9003008C800CF01CE0154
:1027E0004830CD008530CC000A12831254260A16D8
:1027F0007A08FE007908FD007808FC007708FB00E5
:102800006B168C3003178D0001308F0003100B30D6
:1028100083160313BB000A12831225250A1689307A
:1028200084007E088316BE007D08BD007C08BC00C5
:102830007B08BB000330BF000A128A1583120020F8
:102840000A168A1125308316C8000A128312012243
:102850000A160A1262220A160A1262220A16742C38
:102860006B12D701953003178D0001308F000A12CB
:10287000031352230A160A1262220A160A1262224D
:102880000A16742C0A1262220A169A3003178D0057
:1028900001308F000A12031352230A160A12622211
:1028A0000A160A1262220A16B03003178D00013090
:1028B0008F000A12031352230A160A1262220A1602
:1028C0000A1262220A16742CCC3003178D000130D4
:1028D0008F000A12031352230A160A1262220A16E2
:1028E0000A1262220A16742C0A1210240A165611B1
:1028F000831683126B1CAF2C0A125A2F0A16EB1C7C
:10290000902C01308316BB0083126C088316BC0028
:1029100083126D088316BD000A1283129B270A16C4
:102920006B1DA12C02308316BB0083126E08831628
:10293000BC0083126F088316BD000A1283129B2706
:102940000A16EB1DAE2C03308316BB007008BC00CA
:102950007108BD000A1283129B270A16D6106B1E3F
:10296000372D5708033C031D372D8316141EBA2C30
:102970008312372D1230930083126B12EB1660080E
:102980008316C20083125F088316C10083125E089B
:102990008316C00083125D088316BF000A128312DB
:1029A0003D270A167A088316CB007908CA007808F2
:1029B000C9007708C8007E08CF007D08CE007C08DB
:1029C000CD007B08CC000A12831254260A167A081E
:1029D0008316B3007908B2007808B1007708B00018
:1029E0003308C2003208C1003108C0003008BF00FF
:1029F000C601C5014830C4008530C3000A128A15DB
:102A00008312B5290A168A117A088316A300790859
:102A1000A2007808A1007708A000D1308312031724
:102A20008D0001308F0003100A3083160313BB00A2
:102A30000A12831225250A164130840083162308C2
:102A4000BE002208BD002108BC002008BB000A12FD
:102A50008A15831241230A168A110A1262220A1663
:102A60000A1262220A1610308316930083120A1289
:102A7000AF2F0A1678088316B1007708B000310826
:102A8000BE003008BD000A128312CB2F0A169A30FE
:102A90008316C0009930BF001930BE008030BD00E1
:102AA0007A08C4007908C3007808C2007708C1001A
:102AB0000A128A158312AA2B0A168A11031C962E53
:102AC0005708033C031D6C2DEB1E962E8316141E17
:102AD0006B2D8312962E831212308316930083126D
:102AE0006B1B782D0A1281220A166B1378186B174C
:102AF0005708033C0319F12D57080319862D013A95
:102B00000319982D033A0319AC2DF02D0A128A15DA
:102B1000ED230A168A116B30831688008312881AF7
:102B2000972D0130D700DC01DB01DA01D901F02D4E
:102B30000A12D9230A166B30831688008312081BE9
:102B4000AB2D0230D7005C08E0005B08DF005A08BC
:102B5000DE005908DD00F02D0A12C6230A160330E4
:102B6000D7000A1205240A166B1378186B17D83091
:102B700003178D0001308F000310213083160313DB
:102B8000BB000A12831225250A1641308400600812
:102B90008316BE0083125F088316BD0083125E0891
:102BA0008316BC0083125D088316BB000A128A15C7
:102BB000831241230A168A11EA3003178D0001306F
:102BC0008F000310063083160313BB000A12831212
:102BD00025250A160A1262220A160A1262220A160B
:102BE000922EEB1E922E590883162002031D4A2EA8
:102BF00083125A0883162102031D4A2E83125B0892
:102C000083162202031D4A2E83125C0883162302B8
:102C1000031D4A2E8312EB120A12C6230A160A1249
:102C200005240A166B1378186B17EE3003178D0006
:102C300001308F000310143083160313BB000A12F7
:102C4000831225250A164130840083162308BE000E
:102C50002208BD002108BC002008BB000A128A150A
:102C6000831241230A168A11F93003178D000130AF
:102C70008F000314063083160313BB000A1283125D
:102C800025250A160A1262220A160A1262220A165A
:102C9000922E8316230883125C02031C6F2E031DE1
:102CA000692E8316220883125B02031C6F2E031DFC
:102CB000692E8316210883125A02031C6F2E031DEE
:102CC000692E590883162002031C682E83126F2E6A
:102CD00083120A128A15ED230A168A11922E5C08B5
:102CE00083162302031C932E031D8E2E83125B0872
:102CF00083162202031C932E031D8E2E83125A0864
:102D000083162102031C932E031D8E2E200883128E
:102D10005902031C8D2E8316932E83160A128312DA
:102D2000D9230A1683161030930083125619AD2E3C
:102D3000EB1AAD2E5708033C031DAD2E6B18AD2EBC
:102D4000FD3003178D0001308F000A120313522348
:0E2D50000A160A1262220A166300BA286300ED
:02400E00E23F8F
:00000001FF
;PIC16F77
;CRC=E4BD  CREATED="05-paü-17 09:43"
