:1000000008308A00002800000A108A100A118207AE
:10001000003400340034003401340034003400343F
:10002000003400340134003400340134003400342E
:100030000034003400340134532A4F283A366533F3
:10004000741065376410F232E131E8326400532AEB
:100050004F283A39E933683AA0326E322039E53018
:1000600063346532000048344D3449345F347334AE
:100070007434653470347034653472345F346D3484
:100080006F3474346F3472345F34633461346C347D
:10009000693462347234613474346F3472345F346E
:1000A000663477345F34763430345F34313420341E
:1000B000313438342D34703461349F342D3431343C
:1000C00038342034313434343A34353433343A34F7
:1000D000323435340034CE327710E737F4373A1003
:1000E00025267500C330EC346239613AE9376E1069
:1000F000CE275410C3275229C5215410EC30733A2F
:10010000A036613CA012CC3AA0317539F2326E3A79
:10011000A036613CA012CC3AA039F0326532A01270
:100120007500C330EC346239613AE9376E10E63459
:10013000EE3473346532A03B693A68103010BC1657
:100140002D1FA012CC3A2C10F7347434A039F032A1
:100150006532A0127510ED390001C330EC346239FC
:10016000613AE9376E10CE275410E634EE3473341A
:1001700065322C10EC30733AA039F0326532A0129F
:1001800075162037E53BA039F0326532A0127500B4
:10019000C330EC346239613AE9376E10CE2754101F
:1001A000E634EE34733465322C10EC30733AA039F7
:1001B000F0326532A01275162037E53BA039F032D7
:1001C0006532A0127500D332E536203A6F10E23264
:1001D000A0376B162026E1397410ED307810F03717
:1001E0007310301EAD16BE12CC3A2C107338E532A7
:1001F0006410A53A2039E536E134EE3264107439E2
:10020000F939A012750083168613831286130830FD
:10021000F8000A290000F8171B29F813D70C031857
:100220008617031C861378171B297813F80B0E29E1
:1002300019290000861725308400840B1D29000031
:10024000F81B0D29781B152908000B08CA008B1311
:10025000831603178C170C1400000000831203137D
:10026000CA1B8B1703178C0803194F290D0803139A
:10027000CA0003170F080313CB0003170C0803135E
:10028000D70003214A0803178D0003134B080317F7
:100290008F008D0A03198F0A0313252903170313EF
:1002A0008A150A123C280D30D70003210A30D700E6
:1002B000032108004B3084008313000803196D29C3
:1002C0000630F800F701F70B6329F80B62297B3041
:1002D000F700F70B6929800B60290800881783163F
:1002E000881301308312CB005A210130F8008A159F
:1002F0000A1247287B297C290000831608118312E3
:10030000081182298329000008004B08003A0319CC
:100310009029013A0319AD29033A0319CB29CF29B2
:100320000130CA02CA08031D97290430CA00D0014F
:100330005008033C031CAC294C3050078400831345
:100340004A0DF700F70DFC30F70577085007042039
:10035000F8008000D00A9829CF290130CA074A083E
:10036000043C0318B5290130CA00D1015108033CEF
:10037000031CCA294C305107840083134A0DF7002F
:10038000F70DFC30F705770851070420F8008000CE
:10039000D10AB629CF29CC01CD01CE01CF01CC089D
:1003A000031DD4298712D5298716A2122208831685
:1003B00087008312CD08031DDF290713E0290717E3
:1003C00022132208831687008312CE08031DEA2910
:1003D0008713EB298717A21322088316870083123D
:1003E000CF08031DF5290812F629081683160812EE
:1003F000F929FA29000083124A08F8000800002AA7
:10040000012A00008316081183120815072A082AFA
:1004100000000800CB01CA014A08F7004B08F800A9
:10042000F9010310F70DF80DF90D0310F70DF80D94
:10043000F90D0310F70DF80DF90D0310F70DF80D78
:10044000F90D7808A0007908A1007708810008005C
:100450000B08CA008B13831603178C170C140000AB
:10046000000083120313CA1B8B1703170C087F3974
:1004700003197C2A0313CA0003170D080313CB00CA
:1004800003170F080313CC004A08D70003214B08B9
:1004900003178D0003134C0803178F0003130B0879
:1004A000CD008B13831603178C170C14000000006B
:1004B00083120313CD1B8B1703170C0D0E0D7F3901
:1004C00003197C2A0313CA0003170D080313CB007A
:1004D00003170F080313CC004A08D70003214B0869
:1004E00003178D0003134C0803178F008D0A03199F
:1004F0008F0A0313282A0317031308007A212408FC
:10050000CA000230CB0085217808A400FF21013009
:10051000CB005A210A227A21080083160817831279
:10052000081FAB2A7A212408CA000130CB0085219C
:100530007808A400FF210A220130A5070030031823
:100540000130A607003003180130A7070030031858
:100550000130A807B42A273003178D0000308F0020
:100560000313282253217E22080088138316881340
:1005700001308312CB005A210030F8000800B63059
:10058000F700FA01F901F8014A084B044C044D0444
:10059000031DCC2AF701D92A0310F81BD82ACA0D4B
:1005A000CB0DCC0DCD0DFA0DF90DF80DF70BCC2AB6
:1005B000F8138A150A127B284C0803194C2BD40017
:1005C000500803194C2BD4070318ED2A7F30D402AE
:1005D000031C4C2B03194C2BF12A8130D407031830
:1005E0004C2B5408F700F801F901FA014D08D80026
:1005F000D8174E08D7004F08D6001830D400D501C0
:10060000561C1A2B5308FA07031C0C2BF90A031D5E
:100610000C2BF80A0319D5175208F907031C132BE2
:10062000F80A0319D5175108CE00CE174E08F8075F
:100630000318D517D50DF80CF90CFA0CD80CD70CFB
:10064000D60C0310D40BFF2A0130F70703184C2BEC
:10065000F81B312BD80DFA0DF90DF80DF70303191E
:100660004C2BD81F422BFA0A031D422BF90A031DFB
:10067000422BF80A031D422BF80CF90CFA0CF70A6E
:1006800003194C2B4D08D5005108D506D51F4A2B10
:10069000F817502BF813502BF701F801F901FA0164
:1006A00008005A080319162CE6005E080319162CD8
:1006B000E602031C602B7F30E6070318162C662B1E
:1006C0008130E602031C162C0319162C6608F7006D
:1006D000F801F901FA01E5015B08E400E4175C08A0
:1006E000E3005D08E2001930E6006108E202031849
:1006F000892B0130E3020318892BE4020318892BAC
:10070000E5020318892BE50AE40AE30A6108E20717
:10071000BB2B6008E3020318A42B0130E40203188A
:10072000A42BE5020318A42BE50AE40A6008E307FA
:100730006108E207031CBB2BE30A031DBB2BE40A81
:10074000031DBB2BE50ABB2B5F088038E4020318AE
:10075000BA2B0130E5020318BA2BE50A5F0880388E
:10076000E4076008E307031C982BE40A031D982B99
:10077000E50A982B7A14E60BBE2BC92B0310E20D69
:10078000E30DE40DE50D0310FA0DF90DF80DE70D7D
:10079000752B671CD12B0310F80CF90CFA0CE70C25
:1007A000D42BF7030319162CE71BFD2B0310E20DC6
:1007B000E30DE40DE50D6108E2020318E92B0130B9
:1007C000E3020318E92BE4020318E92BE502031CFA
:1007D0000C2C6008E3020318F42B0130E402031828
:1007E000F42BE502031C0C2C5F088038E40203188C
:1007F000FD2B0130E502031C0C2CFA0A031D0C2C06
:10080000F90A031D0C2CF80A031D0C2CF70A031916
:10081000162CF80CF90CFA0C5B08E6005F08E606EB
:10082000E61F142CF8171A2CF8131A2CF701F801EC
:10083000F901FA0108005508DD005408DC005308EE
:10084000DB005208DA00E101E001DF018030DE0068
:10085000512383105108D9005008D8004F08D70001
:100860004E08D6007A08DD007908DC007808DB0045
:100870007708DA0080308318DB06E001E1015708D1
:10088000DF005B08DF06560803192A2DDE00F7009B
:100890005A080319332DDE020319CF2C031C8D2CAB
:1008A0005B08E400E4175C08E3005D08E200E10196
:1008B0000310E40CE30CE20CE10CDE0B572CDF1F01
:1008C000642C6014472D60105E106016593084004F
:1008D00083135C2D6012DF1B772C5E1C822CE40CD2
:1008E000E30CE20CE10CF70A0319422D822CE41B05
:1008F000852C0310E10DE20DE30DE40DF703031960
:10090000422D772C6017EF2C60135708DF00DF1F94
:100910008B2CE4173B2DE4133B2D5A08DE00F70027
:100920005608DE025708E400E4175808E3005908A7
:10093000E200E1010310E40CE30CE20CE10CDE0B3D
:10094000992CDF1FA62CE014472DE0105E10E01656
:100950005D30840083135C2DE012DF1BB92C5E1C1C
:10096000C42CE40CE30CE20CE10CF70A0319422D51
:10097000C42CE41BC72C0310E10DE20DE30DE40DC4
:10098000F7030319422DB92CE017EF2CE0135B0895
:10099000DF00DF1FCD2CE4173B2DE4133B2D5B085C
:1009A000E400E4175C08E3005D08E200DF1FDC2CD4
:1009B000E4136015472D6011E1015E105930840089
:1009C00083135C2DDF1B052D5708DF005E1CEF2C09
:1009D000E40CE30CE20CE10CF70A0319422DE11FD1
:1009E000002DE20A031D002DE30A031D002DE40A79
:1009F000031D002DE40CE30CE20CF70A0319422D51
:100A0000601B842CE01BC62C242D8030E406E41FE0
:100A10000D2D472D5B08DF001A2D5708DF00E40875
:100A2000031D1A2DE308031D1A2DE208031D1A2DBC
:100A3000F7013B2DE41B242D0310E10DE20DE30D26
:100A4000E40DF70B1A2D422DDF1F282DE4173B2D47
:100A5000E4133B2D5A08F7005B08E4005C08E30050
:100A60005D08E2003B2D5608F7005708E4005808DF
:100A7000E3005908E2006408F8006308F90062081E
:100A8000FA007A2DF701F801F901FA017A2DE10156
:100A9000E209E309E409E109E10A031D552DE20A2F
:100AA000031D552DE30A0319E40A6018632CE018AE
:100AB000A52C6019DB2C0A2D0008E207031C662D0B
:100AC000E30A031D662DE40A03195E14840300087B
:100AD000E307031C6E2DE40A03195E148403000867
:100AE000801F803AE40703185E14601A6A2CE01A2B
:100AF000AC2CE22C7A08D9007908D8007808D70005
:100B00007708D6005908DD005808DC005708DB00DC
:100B10005608DA005508E1005408E0005308DF00E9
:100B20005208DE0051237A08D9007908D8007808E5
:100B3000D7007708D6005608B63CD600FA01570809
:100B4000DA00D7170310D70CD80CD90CFA0CF90C13
:100B5000F80CF70CD60BA22DDA1FB92DF709F809FE
:100B6000F909FA09F70A0319F80A0319F90A031926
:100B7000FA0A8A150A12A7280B08CC008B138316D1
:100B800003178C170C140000000083120313CC1BF6
:100B90008B170318F32D03170C087F390313CC00B0
:100BA00003170D080313CD0003170F080313CE001E
:100BB0004C08D70003214D0803178D0003134E087E
:100BC00003178F0003130B08CF008B138316031733
:100BD0008C170C140000000083120313CF1B8B171B
:100BE000CB0BF32D122E03170C0D0E0D7F390313B3
:100BF000CC0003170D080313CD0003170F080313D0
:100C0000CE004C08D70003214D0803178D000313B5
:100C10004E0803178F008D0A03198F0A0310031360
:100C2000CB0BBC2D08008318182E5F308400831373
:100C3000F701F801F901FA01DF01E001E101E20148
:100C40005E085D045C045B040319562E2030E3004B
:100C50000310D70DD80DD90DDA0DDF0DE00DE10D24
:100C6000E20D5E086202031D3F2E5D086102031D56
:100C70003F2E5C086002031D3F2E5B085F02031CD1
:100C8000502E5B08DF025C08031C5C0FE0025D086D
:100C9000031C5D0FE1025E08031C5E0FE2020314F9
:100CA000F70DF80DF90DFA0DE30B282E5F08800003
:100CB000840A60088000840A61088000840A62084F
:100CC000800008000408CF003B30D6009A30D500E1
:100CD000CA30D400D3010A30D10083144B308400D1
:100CE00083134E08DA004D08D9004C08D8004B0891
:100CF000D7005608DE005508DD005408DC00530814
:100D0000DB0013267808F708031D992E5108013AD5
:100D10000319992E4F0803199A2E0F3951020319FE
:100D2000932E03189F2ECF1B9F2E4F1B9A2E2030E1
:100D30009B2ECF013030F7077708D70003218310AF
:100D40005608DA005508D9005408D8005308D700CF
:100D5000DE01DD01DC010A30DB0013267A08D60053
:100D60007908D5007808D4007708D300D10B6D2E10
:100D7000080001080B1DC12EA00A0319A10A0B11BE
:100D80000108F7002008F8002108F900F90CF80C18
:100D9000F70CF90CF80CF70CF90CF80CF70CF90C33
:100DA000F80CF70C8A150A12CE288E30F70051087D
:100DB000F8005008F900FA01F808031DE92E790837
:100DC000F800F9010830F702F808031DE92EF701D1
:100DD000F12E0310F81BF02EF90DF80DF703E92E94
:100DE000F81308005108D8005508D806D81FFD2E62
:100DF00003110310D11B0314302F5108D8005408DD
:100E0000D9005008D90203190B2FD81F302F03081F
:100E1000013A8300302F5508D9005108D90203192F
:100E2000172FD81F302F0308013A8300302F5608A0
:100E3000D9005208D9020319232FD81F302F0308D5
:100E4000013A8300302F5708D9005308D9020319FB
:100E50002F2FD81F302F0308013A8300302F0310A3
:100E60008A150A120D29831688168312881E502FA0
:100E70007A212408CA00CB0185217808A400FF212B
:100E80000A220130A5020030031C0130A602003006
:100E9000031C0130A7020030031C0130A802592FA7
:100EA0001C3003178D0000308F00031328225321BC
:100EB0007E228A150A1226294E08F8014D020318CF
:100EC000642F4D08F700702FF7010830CF00CD0DCB
:100ED000F70D4E0877020318F700F80DCF0B672FB8
:100EE000080078084B08CD006430CE005C277708F6
:100EF000CB0078083030031D842FCC1C8B2FCC19ED
:100F00008B2F4C1A2030872FCC114C124C14F80721
:100F10007808D70003214B08CD000A30CE005C27AB
:100F20007708CB0078083030031D9C2FCC19A02FF8
:100F30004C1CA02F4C1A2030F8077808D70003214A
:0C0F40003030CB074B08D700032108001D
:1010000003081F398300A101A00183160108C0391C
:1010100007388100831281010B1183168613831216
:101020008617FF30A200AE01AD0183161F149F1476
:101030001F1583138312AF01B0010130B500B60153
:101040003710B710BB01BA01B901B801BF01BE0129
:10105000BD01BC01A400A801A701A601A501AC0126
:10106000AB01AA01A901A301333003178D000030A1
:101070008F008A11031325298A158A1153218A1595
:10108000FA30CB008A115A218A158A116E298A15E5
:101090000130C0004008963C031C58288A118D225C
:1010A0008A150230CB008A115A218A15C00A4A28B3
:1010B0008A117E228A158A11B5228A150230C10052
:1010C000FA30CB008A115A218A15C10B6028C03032
:1010D0008B04371CCC282308033C031DCC28371075
:1010E000B7142C08CD002B08CC002A08CB00290807
:1010F000CA008A11BF2A8A157A08CF007908CE0063
:101100007808CD007708CC003B08D3003A08D2001D
:101110003908D1003808D0008A11DC228A157A08F3
:10112000C4007908C3007808C2007708C1004408E9
:10113000D1004308D0004208CF004108CE00D501BD
:10114000D4014830D3008530D2008A111B2C8A1577
:101150007A08BF007908BE007808BD007708BC0097
:101160006B3003178D0000308F0003100A3003131B
:10117000CB008A11BC258A15413084003F08CE007F
:101180003E08CD003D08CC003C08CB008A11622609
:101190008A158A1153218A158A11B92E8A15780861
:1011A000C2007708C100D1013508D0008A11D526C8
:1011B0008A157A08CF007908CE007808CD00770824
:1011C000CC009A30D3009930D2001930D1007F3052
:1011D000D0008A11DC228A157A08C6007908C50079
:1011E0007808C4007708C3004208D1004108D00045
:1011F0008A11D5268A154608D3004508D20044082E
:10120000D1004308D0007A08D7007908D6007808C2
:10121000D5007708D4008A11F22E8A15031C962A6D
:101220002308033C031D1629B71C962A2308033CF8
:101230000319962A230803192429013A031933298B
:10124000033A0319A229962A8A11332F8A15831685
:1012500088168312881A32290130A300A801A70139
:10126000A601A501962A8A118D228A1583160817D0
:101270008312081BA1290230A30025082902031D9F
:10128000502926082A02031D502927082B02031D76
:10129000502928082C02031D50290130B60799292E
:1012A000B601723003178D0000308F00031021301B
:1012B0000313CB008A11BC258A15413084002C0809
:1012C000CE002B08CD002A08CC002908CB008A11BB
:1012D00062268A15843003178D0000308F000310BA
:1012E0000D300313CB008A11BC258A1541308400D0
:1012F0002808CE002708CD002608CC002508CB0002
:101300008A1162268A158C3003178D0000308F00F9
:10131000031007300313CB008A11BC258A1535084A
:10132000CB001B30CC008A1171278A158A115321FA
:101330008A152808AC002708AB002608AA00250853
:10134000A900962A8A117E228A1536080A3C031DB6
:10135000ED298A11B5228A150330A30091300317B5
:101360008D0000308F00031021300313CB008A1151
:10137000BC258A15413084002C08CE002B08CD00F6
:101380002A08CC002908CB008A1162268A15A330CE
:1013900003178D0000308F0003100D300313CB00B6
:1013A0008A11BC258A153508CB001B30CC008A1168
:1013B00071278A152030D7008A1103218A156D30D4
:1013C000D7008A1103218A157330D7008A110321AF
:1013D0008A158A1153218A15962AB608031D482AB0
:1013E000A301AD3003178D0000308F0003102530AE
:1013F0000313CB008A11BC258A153508CB001B309E
:10140000CC008A1171278A15C03003178D00003077
:101410008F0003140C300313CB008A11BC258A15EE
:101420003508CB001B30CC008A1171278A158A1130
:1014300053218A150130B5073507C100C83003179D
:101440008D0000308F00031025300313CB008A116C
:10145000BC258A153508CB001B30CC008A117127BA
:101460008A15DB3003178D0000308F0003140C3019
:101470000313CB008A11BC258A154108CB001B3011
:10148000CC008A1171278A158A1153218A15962A50
:101490003608003C0318962A36080A3C0319962A97
:1014A000A30136080A3CC100E33003178D00003069
:1014B0008F00031021300313CB008A11BC258A153D
:1014C000413084002C08CE002B08CD002A08CC0027
:1014D0002908CB008A1162268A15F53003178D0082
:1014E00000308F00031008300313CB008A11BC2595
:1014F0008A153508CB001B30CC008A1171278A155C
:10150000FA3003178D0000308F0003100F300313E3
:10151000CB008A11BC258A154108CB001B30CC00BA
:101520008A1171278A158A1153218A156928630047
:02400E00E23F8F
:00000001FF
;PIC16F77
;CRC=F379  CREATED="18-paü-18 14:53"
