:1000000082EF0DF01B801200046ED8CF05F0E0CF18
:1000100006F00001E9CF0CF0EACF07F0E1CF08F0DD
:10002000E2CF09F0D9CF0AF0DACF0BF0F3CF12F01C
:10003000F4CF13F0FACF14F0F5CF15F0F6CF16F099
:10004000F7CF17F000C00EF001C00FF002C010F0A3
:1000500003C011F09DA030EF00F09EB092EF02F0CF
:10006000F2A836EF00F0F2B239EF02F00EC000F065
:100070000FC001F010C002F011C003F00CC0E9FF86
:1000800007C0EAFF078E08C0E1FF09C0E2FF0AC00F
:10009000D9FF0BC0DAFF12C0F3FF13C0F4FF14C086
:1000A000FAFF15C0F5FF16C0F6FF17C0F7FF0450A2
:1000B00006C0E0FF05C0D8FF1000F76ACA0FF66E51
:1000C000000EF7220900F55012000001020304059A
:1000D0000607F76AE20FF66E000EF7220900F550E8
:1000E00012007374657055500000F76AFA0FF66ECF
:1000F000000EF7220900F550120073746570444F2A
:10010000574E0000F76A140FF66E010EF722090031
:10011000F55012006175746F54756E65555000008E
:10012000F76A300FF66E010EF7220900F550120043
:100130006175746F54756E65444F574E0000F76AD1
:100140004E0FF66E010EF7220900F55012005550C1
:100150000000F76A620FF66E010EF7220900F550F3
:100160001200444F574E000049324320772E6164FD
:1001700064723A2578206572726F722074727928E1
:1001800073293A254C75207374617475733A25642C
:10019000000049324320772E616464723A2578204A
:1001A00041434B0049324320722E616464723A2508
:1001B000782041434B0049324320616464723A2500
:1001C00078202141434B0000493243206164723A58
:1001D000257820434F4C4953494F4E005461206CC1
:1001E000696E696A6B6120706F77696E6E612062FB
:1001F00079632077796B61736F77616E610D0A00A7
:10020000536574206261636B6C6967687420256450
:100210000000454550524F4D2069732064616D6167
:100220006765643F0000454550524F4D206973207B
:1002300064616D616765643F00005461206C696EA4
:10024000696A6B6120706F77696E6E612062796395
:100250002077796B61736F77616E610D0A0052656B
:10026000736574206D6F64756C657300496E697495
:10027000206465766963652000002573205445413C
:100280003537363700002573204D4B425F464D0011
:100290002573204D4B425F4441422B002573204D76
:1002A0004B425F414D00257320564D3300002573AE
:1002B00020564D335F524E440000257320424C556A
:1002C000450025732041555800004465762025756A
:1002D000206E6F7420737570706F747265640000A7
:1002E0005445413537363720257300004D6F6E6B0E
:1002F0006579426F61726420464D202573004D6F11
:100300006E6B6579426F617264204441422B2025F7
:1003100073004D6F6E6B6579426F61726420414D61
:1003200020257300564D7573696320257300564D63
:10033000757369632052444E20257300424C554525
:10034000544F4F54482025730000415558202573C1
:100350000000446576206E6F7420737570706F7442
:1003600072656420257300004163746976652041DD
:100370006E74656E613A25730000547265626C6537
:100380003A2573004D6964646C653A2573004261D7
:1003900073733A2573004C5F485F426F6F73743A12
:1003A000257300004C6566742D52696768743A25A0
:1003B000730046726F6E742D526561723A25730038
:1003C0004261636B6C696768743A2573000045513C
:1003D0002021737570702E3A257300008E6B8D6B23
:1003E000906B8F6BA60E006E002EFED700009380E0
:1003F00081B006D08D2BD8B48E2B906B8F6B05D02F
:100400008E6B8D6B8F2BD8B4902B8C518E5D04E34B
:100410000AE18D518B5D07E38C51905DE3E303E1CD
:100420008F518B5DDFE226EF02F0F298928880B860
:1004300009D0928A80BA06D0968084B003D0968282
:1004400084A204D08C6B020E8B6FC8D796809682E4
:10045000968496868450030B006E00388B6F8B3722
:100460008B37C00E8B17926880508B111A6E3BEF42
:1004700002F09D90DAD79D80F29236EF00F08C5119
:100480008E03F3CF01F0F4CF00F08F03F35000267A
:100490008D518E03F3500020026E79EF02F0016A55
:1004A000026A006A036A915102E1905118E0100E4D
:1004B000926FD8908E378F37003603369151035C98
:1004C00002E19051005C07E39051005ED8A0030662
:1004D0009151035ED88001360236922FEAD785EF1C
:1004E00002F08D6B8BC08CF0030E8F6FE80E8E6F59
:1004F000C6D702C08DF001C08CF002C08FF001C0E1
:100500008EF0916B680E906FCAD70150405C06E088
:1005100005E31B82010E016E03D002D0000E016EB6
:1005200097EF02F0F298402A0A0E8B6FDAD71B92EF
:1005300001B01B82F2889E9036EF00F04D43555F6C
:1005400066775F76305F315F2030352D6B77692DB0
:1005500031392031303A30383A333600416E7465E3
:100560006E6120706F7765722073657475703A25BF
:100570007800526164696F203173742072756E2E39
:100580005365742064656661756C742076616C7364
:100590000000417564696F206465763A2578000033
:1005A0004E6965207069737A6520646F2065657097
:1005B000726F6D204441422B2064656661756C74D6
:1005C0002066726571004E6965207069737A6520D6
:1005D0007720656570726F6D207A65726F77656AD6
:1005E000206772616E656A206D70330052656164C8
:1005F00020454570726F6D00522E696E70757420C3
:1006000025640000522E616120256400522E666D23
:100610005F6672657100522E766F6C00522E747296
:100620006500522E6D696400522E62617373000082
:10063000522E626F6F737400522E6C2D7200522E08
:10064000662D7200522E616D206672657100522E09
:1006500042434B5F6C69676874004E696520637A3A
:100660007974616D207A20656570726F6D204441E8
:10067000422B2064656661756C742066726571003A
:100680004E696520637A7974616D207A20656570A2
:10069000726F6D206F737461746E696F2067726121
:1006A0006E656A206D703300566F6C206D656E75D7
:1006B0000000566F6C2B0000566F6C2D00005341EC
:1006C000564520766F6C756D6500506C617965726A
:1006D00020736F75726365207377697463680000B7
:1006E00053776974636820696E707574000044659F
:1006F000762E20257520696E69740000457175613C
:100700006C69736572206D656E75000045512073CC
:1007100075626D656E7520257500534156452045FF
:100720005155414C495345523A0053415645204298
:10073000434B5F6C69676874000053415645204124
:10074000416E74656E612000556E737570706F72C6
:1007500074656420627574746F6E20706174657264
:100760006E3A20257800EA6A760EE96EEF500DE0C9
:10077000060E016E006A002EFED7012EFBD77B0EFF
:10078000006E002EFED7EF2EF3D71200939E8A9EA6
:10079000080E016E00D00000018E0ED0019E8A333B
:1007A000D8B08A8ED8A08A9E018C06D0019C012EDA
:1007B000F6D700D000008A8E250EE96EE92EFED70E
:1007C000000001BEEBD701BCF1D712000900F552C1
:1007D0000CE0F6CF76F0F7CF77F0F5CF8AF0D6DFE2
:1007E00076C0F6FF77C0F7FFF1D712000D0E8A6FC3
:1007F000CDDF0A0E8A6FCADF1200706A6F6A70500E
:100800006E5C11E303E16D506F5C0DE26F506B2481
:10081000016E70506C2001C0E9FFEA6EEF6A6F2A2A
:10082000D8B4702AECD712006C6A1C0E6B6E6E6A1C
:10083000100E6D6EE2DF12006C6A2C0E6B6E6E6A2B
:10084000100E6D6EDADF1200C69E9E9683C0C9FF41
:10085000020EC6BE05D09EA6FED7000EC5BC010E78
:10086000016E1200C580C5B0FED7210E006E002EAD
:10087000FED71C50FE0B826F836FE6DF01C081F054
:10088000210E006E002EFED7C584C5B4FED7210E02
:10089000006E002EFED781C001F05EEF05F009006A
:1008A000F6CF82F0F7CF83F0F5CF8AF06FDF82C00A
:1008B000F6FF83C0F7FF812FF2D7120082BF0FD05F
:1008C0000F0E006E813900160A0E005C03E2300E36
:1008D000002602D08251002600C08AF057DF0F0E9A
:1008E00081170A0E815D02E2300E02D0829F825192
:1008F000812781C08AF04ADF1200EACF89F0E9CF70
:1009000088F08239F009846F8427E20F856F320FF7
:10091000876F82510F0B852785278727E90F866F01
:100920008627862781390F0B8627872786378737C3
:10093000871F873781510F0B87278437070E836FF7
:100940000A0E86078727FDE385078627FDE38407D0
:100950008527FDE383078427FDE3EA6A830EE96EBA
:10096000070E8815889DE926000EEA22E9508708BF
:1009700003E1EA5201E1888DEF50006E08E188BD85
:1009800006D088B913D088B702D0200E03D088874C
:100990008899300E0026EACF82F0E9CF81F000C0BE
:1009A0008AF0F4DE82C0EAFF81C0E9FFEE5088AD34
:1009B000DDD77CEF05F08851016A875D03E287C0CF
:1009C00000F00CD0006A080E896F87370036885116
:1009D000005CD8B0006E0136892FF7D71200200EC8
:1009E00082A9300E836F81C000F081AF08D0001E55
:1009F000002A00C081F02D0E836F828F828101500A
:100A000081C087F0640E886FD6DF00C081F0300EA1
:100A10000124846F81C087F00A0E886FCCDF300E0E
:100A20000024866F300E0124856F83C000F0300EE5
:100A3000845D04E0828382BF828512D083C084F00B
:100A4000200E836F300E855D04E0828182BF828339
:100A500007D0D8A4828104E184C085F0200E846F81
:100A600082B505D082B306D082B107D009D083C049
:100A70008AF08CDE84C08AF089DE85C08AF086DE4A
:100A800086C08AF083DE1200030E815F09E3EA6A02
:100A9000810EE96EEF5004E001D000D0EF2EFDD7BB
:100AA00090EF05F0010E7E6E806B7F6A7E5239E01A
:100AB000805337E17F50630834E3D4D601C07EF021
:100AC0007E5227E0680EF66E010EF76E0B0E816FF8
:100AD000E6DE1CC081F0570E826FF0DE750EF66EFA
:100AE000010EF76E0E0E816FDADE100EE96E80C019
:100AF00082F07FC081F001D7860EF66E010EF76E90
:100B0000080E816FCCDE7EC081F0180E826F67DF29
:100B10006DDE010E7F26000E8023FE0E816FB4D79E
:100B2000C5D77EC001F0A9EF05F0C69CC586C5B645
:100B3000FED700B0C59A00A0C58AC588C5B8FED743
:100B4000C9CF01F00EEF06F0F29CF29EF2BEFDD787
:100B5000A9D701C07AF07A52D8A4A0D0C580C5B078
:100B6000FED7210E006E002EFED73E5202E13F520C
:100B70001AE07C6A7B6A7C503F5C15E303E13E50DF
:100B80007B5C11E21C0E7B24E96E000E7C20EA6E79
:100B9000EFCF83F059DE210E006E002EFED77B2AA8
:100BA000D8B47C2AE8D7792C0ED0C582C5B2FED73E
:100BB000210E006E002EFED71EC083F045DE210EF2
:100BC000006E002EFED73C5202E13D5232E07C6ABC
:100BD0007B6A7C503D5C2DE303E13C507B5C29E269
:100BE000010E3C5C006E000E3D58036E00C001F02B
:100BF0007C50035C06E303E101507B5C02E27D80F4
:100C000001D07D902C0E7B24E96E000E7C20EA6ED4
:100C1000000E7DB0010E806F006E87D701C0EFFF20
:100C2000630E006E002EFED700D07B2AD8B47C2A3B
:100C3000D0D7C584C5B4FED7210E006E002EFED7D6
:100C40003C5217E13D5215E1920EF66E010EF76E21
:100C50000B0E816F24DE1CC081F0570E826F2EDEDA
:100C60009F0EF66E010EF76E040E816F18DEBEDD6C
:100C700014D0A40EF66E010EF76E0B0E816F0FDE10
:100C80001CC081F0570E826F19DEB10EF66E010E98
:100C9000F76E040E816F03DEA9DD2ED07A2C15D0FD
:100CA000B60EF66E010EF76E090E816FF8DD1CC0F0
:100CB00081F0570E826F02DEC10EF66E010EF76EE6
:100CC000050E816FECDD92DD17D07A50020814E139
:100CD000C80EF66E010EF76E080E816FE0DD1CC0C7
:100CE00081F0570E826FEADDD20EF66E010EF76EBE
:100CF000090E816FD4DD7ADD3F6A3E6A3D6A3C6A47
:100D0000C00EF2121200F29CF29EF2BEFDD78CDDF4
:100D100093DD3F6A010E3E6E3D6A3C6E110E1C6E05
:100D2000796A12DF050E766E1EDDC00EF2122CC03F
:100D300001F0C4EF0DF078DD6630036E6530026EB1
:100D400003320232033202320332023203320232FF
:100D50000332023203320232010E03160250A0099E
:100D6000FE0B1C6E65C01DF0EA6A1E0EE96E68C0BF
:100D7000E2FF67C0E1FF6AC002F069C001F0015202
:100D800002E0022A02D0025206E0E6CFEEFF012E78
:100D9000FCD7022EFAD7020E69243E6E000E6A209E
:100DA0003F6E3D6A3C6A796ACFDE12006268646A0F
:100DB000636A6450040813E303E1635000080FE31F
:100DC00064C066F063C065F0686A620E676E6A6A46
:100DD000010E696EB0DF632AD8B4642AEAD7FBEF4C
:100DE0000DF022DD29DD6330036E6230026E0332C6
:100DF000023203320232033202320332023203324F
:100E0000023203320232010E03160250A009FE0B19
:100E10001C6E62C01DF06330036E6230026E0332DE
:100E2000023203320232033202320332023203321E
:100E3000023203320232010E03160250A0090109E8
:100E40001E6E3F6A030E3E6E67C03DF066C03CF00A
:100E5000010E796E79DE65C0EAFF64C0E9FFE26ADF
:100E60002C0EE16E67C002F066C001F0015202E094
:100E7000022A02D0025206E0E6CFEEFF012EFCD796
:100E8000022EFAD7120065C003F064C0E9FF65C006
:100E9000EAFFEF50800A006E6650800A005C0DE3A6
:100EA00065C003F064C0E9FF65C0EAFF6750800ACF
:100EB000006EEF50800A005C13E2120EF66E020E16
:100EC000F76E84DC93DC64C0E9FF65C0EAFF68C0AC
:100ED000EFFF080E696EFA0E766E45DC692EFBD7C1
:100EE000120065C003F064C0E9FF65C0EAFFEFCF00
:100EF00072F0ECCF73F0ECCF74F0ECCF75F075AE10
:100F000003D069AE36D002D069BE0FD07550695C8F
:100F10000CE32FE17450685C08E32BE17350675CCD
:100F200004E327E16650725C24E365C003F064C00B
:100F3000E9FF65C0EAFFEFCF72F0ECCF73F0ECCFC2
:100F400074F0ECCF75F06DAE03D075AE12D002D058
:100F500075BE29D06D50755C26E30BE16C50745C56
:100F600022E307E16B50735C1EE303E172506A5C9D
:100F70001AE2260EF66E020EF76E28DC37DC64C02D
:100F8000E9FF65C0EAFF6EC0EFFF6FC0ECFF70C005
:100F9000ECFF71C0ECFF080E726EFA0E766EB3ECC9
:100FA00003F0722EFAD712001A6AF18AF28895EFCE
:100FB00010F0406A1B92B50ECD6E97EF10F0036AE9
:100FC0001C0EE96E03C0EAFF100EEF6E12003F6ABE
:100FD00078C03EF03D6A3C6A796AB6DD1200EFDF08
:100FE0001D6A050E786EF3DF99EF10F0DC0EF66ED9
:100FF000010EF76EE6EC03F0F6EC03F0000EF66E71
:10100000020EF76E0E0E816F4ADC6BC081F0180E77
:10101000826FE5DCF6EC03F0D2DF060E1D6E6BC0CE
:101020001EF0030E786ED3DF12001A5203E01A6A24
:10103000F288F2921200406A02EC00F0F6DF010E34
:10104000766EB3EC03F0120002EC00F0EEDF010E5E
:10105000766EB3EC03F012001B9031EF08F0406A9B
:10106000FBD7010E766EB3EC03F012001BA204D086
:10107000010E016E03D002D0000E016E12009D9091
:10108000406A12009CDF010E1D6E63C01EF0050E4B
:10109000786E9DDF52EF08F06250020803E0020E06
:1010A000636EF0D726EF11F0015066C087F0640E32
:1010B000886F81DC00C066F00150300E07E167A246
:1010C0000DD067B60BD067B8200E03D0679667982F
:1010D0006780012601C08AF0C6EC03F066C087F085
:1010E0000A0E886F68DC00C066F00150300E06E121
:1010F00067B609D067A007D067B8200E012601C0E7
:101100008AF0C6EC03F0300E662666C08AF0C6ECA4
:1011100003F0120054DF030E1D6E76C01EF077C080
:101120001FF0050E786E53DF1200705202E071520C
:1011300004E173520FE074520DE03A0EF66E020EA7
:10114000F76EE6EC03F0F6EC03F0030E766E040E99
:10115000776EE0DF70507102F35002E18A9A01D09D
:101160008A8A939A725202E18A9801D08A88939867
:1011700073507402F35002E18C9E01D08C8E959EC8
:1011800075C076F0B3EC03F01200030E766E870E96
:10119000776EC0DF706A716A726A736A746A756AA0
:1011A000C4DF12005E0EF66E020EF76EE6EC03F080
:1011B000F6EC03F0EADF1200006A016A6750D8908B
:1011C00068B000260032013268B2002600320132D7
:1011D00068B400260032013268B6002600320132BF
:1011E00068B800260032013268BA002600320132A7
:1011F00068BC00260032013268BE0026003201328F
:10120000E7EF09F0649062C0E9FF63C0EAFF036A98
:10121000EF505DEC00F0016EF70FD8B086D1090FEA
:101220009BEF0AF063C003F062C0E9FF63C0EAFF0E
:10123000EFCF66F0B7DF6C0EF66E020EF76EE6ECDF
:1012400003F07C0EF66E020EF76E080E816F4FEC07
:1012500004F0F6EC03F0010E766E040E776E5ADFA2
:10126000000E1BB4010E666E706E41C071F0726AA2
:10127000736A746A960E756E58DF57D163C003F0B7
:1012800062C0E9FF63C0EAFFEFCF66F08BDF6C0E50
:10129000F66E020EF76EE6EC03F0880EF66E020EA6
:1012A000F76E070E816F4FEC04F0F6EC03F0010EC1
:1012B000766E040E776E2EDF000E1BB4010E666E86
:1012C000000E1BB8010E686E000E1BB6010E696E93
:1012D00066C070F041C071F068C072F0736E746ADD
:1012E000960E756E22DF21D163C003F062C0E9FF64
:1012F00063C0EAFFEFCF66F055DF6C0EF66E020EAC
:10130000F76EE6EC03F0920EF66E020EF76E090E23
:10131000816F4FEC04F0F6EC03F0010E766E020ED6
:10132000776EF8DE000E1BB4010E666E000E1BB861
:10133000010E676E000E1BB6010E686E66C070F07F
:10134000716A67C072F0736E41C074F0960E756E6C
:10135000ECDEEBD063C003F062C0E9FF63C0EAFFDC
:10136000EFCF66F01FDF6C0EF66E020EF76EE6EC46
:1013700003F09E0EF66E020EF76E070E816F4FECB5
:1013800004F0F6EC03F0010E766E030E776EC2DE0B
:10139000000E1BB4010E666E000E1BB8010E686EC7
:1013A000000E1BB6010E696E66C070F041C071F090
:1013B00068C072F0736E746A960E756EB6DE000EBB
:1013C0001BB4010E666E676E41C068F0F5D6015021
:1013D00005E0030E766E040E776E9CDEA6D063C029
:1013E00003F062C0E9FF63C0EAFFEFCF66F0DADE28
:1013F0006C0EF66E020EF76EE6EC03F0A80EF66EBB
:10140000020EF76E040E816F4FEC04F0F6EC03F061
:10141000010E766E070E776E7DDE87D063C003F017
:1014200062C0E9FF63C0EAFFEFCF66F0BBDE6C0E7F
:10143000F66E020EF76EE6EC03F0B00EF66E020EDC
:10144000F76E080E816F4FEC04F0F6EC03F0010E1E
:10145000766E060E776E5EDE68D063C003F062C003
:10146000E9FF63C0EAFFEFCF66F09CDE6C0EF66E1C
:10147000020EF76EE6EC03F0BC0EF66E020EF76E8F
:10148000050E816F4FEC04F0F6EC03F0010E766E62
:10149000776E40DE4AD063C003F062C0E9FF63C0EC
:1014A000EAFFEFCF66F07EDE6C0EF66E020EF76E90
:1014B000E6EC03F0C40EF66E020EF76E040E816FBA
:1014C0004FEC04F0F6EC03F0010E766E050E776E2D
:1014D00021DE2BD063C003F062C0E9FF63C0EAFFE6
:1014E000EFCF65F0CA0EF66E020EF76E040E816F36
:1014F0004FEC04F065C066F01B0E676ED5DDD00EB4
:10150000F66E020EF76E0E0E816F4FEC04F0F6ECE5
:1015100003F0648062C0E9FF63C0EAFF010EEF24BC
:1015200063C0EAFF62C0E9FFEF6E000E64B0010E17
:10153000016E6CEF11F0E824F76AF736510FF66E82
:10154000150EF7220A00F550FA6E0800F550F96EF4
:1015500024127C12E8125413DE131C145A1496142D
:10156000D414EF5210E0EACF72F0E9CF71F0EFCF70
:101570008AF0C6EC03F072C0EAFF71C0E9FFE92A05
:10158000D8B4EA2AEED712006350FB0F36E2050FFB
:101590008FEF0BF0EA6A640EE96E000E69EC00F062
:1015A0000A000900F550EE6E0009FBE126D0EA6A58
:1015B000640EE96E000E75EC00F00A000900F550AB
:1015C000EE6E0009FBE119D0EA6A640EE96E000EC6
:1015D00082EC00F00A000900F550EE6E0009FBE114
:1015E0000CD0EA6A640EE96E000E90EC00F00A007E
:1015F0000900F550EE6E0009FBE1036A62505DECF4
:1016000000F0016EF70FD8B089D0090FA1EF0BF0F1
:10161000E00EF66E020EF76E080E816F4FEC04F0CE
:10162000EA6A640EE96E9DDFF6EC03F077D0EC0E0B
:10163000F66E020EF76E0F0E816F4FEC04F0EA6A41
:10164000640EE96E8EDFF6EC03F068D0FE0EF66EE7
:10165000020EF76E110E816F4FEC04F0EA6A640E11
:10166000E96E7FDFF6EC03F059D0120EF66E030E32
:10167000F76E0F0E816F4FEC04F0EA6A640EE96EAC
:1016800070DFF6EC03F04AD0240EF66E030EF76E10
:10169000070E816F4FEC04F0EA6A640EE96E61DFB9
:1016A000F6EC03F03BD02E0EF66E030EF76E0B0E2B
:1016B000816F4FEC04F0EA6A640EE96E52DFF6ECDB
:1016C00003F02CD03C0EF66E030EF76E0A0E816FFF
:1016D0004FEC04F0EA6A640EE96E43DFF6EC03F0C7
:1016E0001DD04A0EF66E030EF76E040E816F4FEC9E
:1016F00004F0EA6A640EE96E34DFF6EC03F00ED013
:10170000520EF66E030EF76E120E816F4FEC04F060
:10171000EA6A640EE96E25DFF6EC03F01200E824B5
:10172000F76AF736390FF66E170EF7220A00F550F2
:10173000FA6E0800F550F96E9415AE15C815FA1535
:10174000E215E824F76AF7365D0FF66E170EF722FA
:101750000A00F550FA6E0800F550F96E10162E16B4
:101760004C166A168816A616C416E216001727DC51
:10177000050E1D6E63C01EF064C01FF065C020F032
:10178000786E25DC12006250F80F35E2080FFDEF8D
:101790000BF0020E766E040E776EBCDC2CD0020EBF
:1017A000766E776EB7DC27D0020E766E010E776EFE
:1017B000B1DC21D0020E766E060E776EABDC1BD04C
:1017C000020E766E050E776EA5DC15D0020E636EE6
:1017D000030E646E070E656ECADF0DD0020E636ED7
:1017E000870E646E030E656EC2DF05D0020E766E44
:1017F000070E776E8FDC42EF12F0E824F76AF736B7
:10180000150FF66E180EF7220A00F550FA6E080052
:10181000F550F96E92179E17A817B417C017CC177A
:10182000DC17EC176CC003F06BC0E9FF6CC0EAFF7B
:10183000EF50800A006E6D50800A005C01E009E202
:101840006CC003F06BC0E9FF6CC0EAFF6DC0EFFF36
:1018500014D06CC003F06BC0E9FF6CC0EAFF6E509F
:10186000800A006EEF50800A005C01E006E26BC067
:10187000E9FF6CC0EAFF6EC0EFFF1200642C0DD0D0
:10188000EA6A660EE96E000E9FEC00F00A0009009D
:10189000F550EE6E0009FBE10CD0EA6A660EE96EC7
:1018A000000EA9EC00F00A000900F550EE6E0009E8
:1018B000FBE16350F70FD8B00ED1090F6CEF0DF0BC
:1018C000680EF66E030EF76E0E0E816F4FEC04F08D
:1018D000EA6A660EE96E45DEF6EC03F0645003E05A
:1018E000010A1AE064D0010E415E4FDC652C01D084
:1018F00006D06550030803E0655002080CE1000EB5
:101900001BB8010E6C6E706A716A726E736A746ACB
:10191000960E756E0ADC4BD0010E412665520EE123
:10192000000E1BB4010E6C6E706E41C071F0726AD5
:10193000736A746A960E756E95EC08F0652C01D08A
:1019400003D06550030818E1000E1BB4010E6C6E45
:10195000000E1BB8010E6E6E000E1BB6010E6F6EF0
:101960006CC070F041C071F06EC072F0736E746A3A
:10197000960E756E95EC08F06550020818E1000EA1
:101980001BB4010E6C6E000E1BB8010E6D6E000EC6
:101990001BB6010E6E6E6CC070F0716A6DC072F095
:1019A000736E41C074F0960E756E95EC08F06C6A1B
:1019B000410E6B6E6D6A010E6E6E34DF8CD07A0E46
:1019C000F66E030EF76E070E816F4FEC04F0EA6AB5
:1019D000660EE96EC6DDF6EC03F07DD0840EF66E81
:1019E000030EF76E070E816F4FEC04F0EA6A660E85
:1019F000E96EB7DDF6EC03F06ED08E0EF66E030ED8
:101A0000F76E050E816F4FEC04F0EA6A660EE96E20
:101A1000A8DDF6EC03F05FD0960EF66E030EF76EBF
:101A20000A0E816F4FEC04F0EA6A660EE96E99DDEA
:101A3000F6EC03F050D0A40EF66E030EF76E0B0E0C
:101A4000816F4FEC04F0EA6A660EE96E8ADDF6EC0F
:101A500003F041D0B20EF66E030EF76E0B0E816FDF
:101A60004FEC04F0EA6A660EE96E7BDDF6EC03F0FB
:101A700032D0C00EF66E030EF76E0A0E816F4FEC79
:101A800004F0EA6A660EE96E6CDDF6EC03F0645071
:101A900003E0010A04E005D0010E425E02D0010E0F
:101AA00042266C6A420E6B6E6D6A010E6E6EBADE75
:101AB00042C06BF0F6EC07F00ED0CE0EF66E030EC1
:101AC000F76E0A0E816F4FEC04F0EA6A660EE96E5B
:101AD00048DDF6EC03F01200E824F76AF736F30F5E
:101AE000F66E1A0EF7220A00F550FA6E0800F5504D
:101AF000F96EC018BE19DC19FA19181A361A541AD8
:101B0000721ABA1AF86AD09E078EFE0E006E060E82
:101B1000016E020EE96E000EEA6EEE6A002EFDD72F
:101B2000012EFBD794869488310EC86E280EC66E9F
:101B3000C78EC79C196AB886810EAF6E000EB06E54
:101B4000A60EAC6E900EAB6E00000000939E8A8EC7
:101B50004B6A4A6AC150C00B0F09C16E070EB46EC2
:101B6000060E626EFA0E766EB3EC03F0622EFAD7B2
:101B70003C0EF66E050EF76EE6EC03F0F6EC03F0A5
:101B8000D080D08C83EF06F001C04CF05C0EF66E76
:101B9000050EF76E130E816F4FEC04F04CC081F010
:101BA000570E826F5EEC04F0F6EC03F04C50010B24
:101BB0001B94E8B01B844C50020B006ED89000328E
:101BC0001B9600B01B864C50040B006E0032003296
:101BD0003F0E00161B9800B01B88928880A80BD07F
:101BE000928A80AA08D0968084A005D0968284A28A
:101BF00002D0D6EF06F0020E4D6E4DC04EF04F8073
:101C0000636A626A656A510E646E676A010E666E87
:101C1000F1EC06F0512C01D0E7D0720EF66E050EF5
:101C2000F76EE6EC03F0F6EC03F05B6A5B50060837
:101C300020E3036A5B505DEC00F0080818E05BC02D
:101C400052F0036A5B505DEC00F0626E920EF66E2D
:101C5000050EF76E0A0E816F4FEC04F062C081F042
:101C6000570E826F5EEC04F0F6EC03F002D05B2AB4
:101C7000DDD7666A010E656E686A520E676E6A6A23
:101C8000010E696E9BEC06F0010E416E666A020E53
:101C9000656E686A410E676E6A6A010E696E9BEC3A
:101CA00006F0050E566E370E556E240E546EE00E7D
:101CB000536E666A030E656E686A530E676E6A6AD3
:101CC000040E696E9BEC06F0050E436E666A070E05
:101CD000656E686A430E676E6A6A010E696E9BECF8
:101CE00006F0446A666A080E656E686A440E676E9E
:101CF0006A6A010E696E9BEC06F0456A666A090E17
:101D0000656E686A450E676E6A6A010E696E9BECC5
:101D100006F0466A666A0A0E656E686A460E676E67
:101D20006A6A010E696E9BEC06F0476A666A0B0EE2
:101D3000656E686A470E676E6A6A010E696E9BEC93
:101D400006F0486A666A0C0E656E686A480E676E31
:101D50006A6A010E696E9BEC06F0496A666A0D0EAE
:101D6000656E686A490E676E6A6A010E696E9BEC61
:101D700006F05A6A070E596EF70E586E100E576E1F
:101D8000666A656E686A570E676E6A6A040E696EE7
:101D90009BEC06F0010E426E666A0E0E656E686A76
:101DA000420E676E6A6A010E696E9BEC06F0A00E29
:101DB000F66E050EF76EE6EC03F0F6EC03F0C60ED9
:101DC000F66E050EF76EE6EC03F0F6EC03F0010E8E
:101DD000516E666A656A686A510E676E6A6A010EBC
:101DE000696E9BEC06F09FD1EC0EF66E050EF76E59
:101DF000E6EC03F0F6EC03F0636A010E626E656ACE
:101E0000520E646E676A010E666EF1EC06F0F80E13
:101E1000F66E050EF76E080E816F4FEC04F052C09F
:101E200081F0180E826FEFEC04F0F6EC03F0656AB7
:101E3000520E646E666A080E676E686A43EC07F0BD
:101E4000636A020E626E656A410E646E676A010E15
:101E5000666EF1EC06F0040EF66E060EF76E050ED9
:101E6000816F4FEC04F041C081F0180E826FEFECEF
:101E700004F0F6EC03F0656A410E646E666A010ECA
:101E8000676E686E43EC07F0636A030E626E656A04
:101E9000530E646E676A040E666EF1EC06F00C0E6B
:101EA000F66E060EF76EE6EC03F0F6EC03F0656AEC
:101EB000530E646E050E696E370E686E240E676EE3
:101EC000E00E666E060E6D6E6F0E6C6EF30E6B6E30
:101ED0006A6A050E716E370E706E240E6F6EE00E1C
:101EE0006E6E71EC07F0636A070E626E656A430EF0
:101EF000646E676A010E666EF1EC06F0160EF66E01
:101F0000060EF76EE6EC03F0F6EC03F0656A430E9E
:101F1000646E666A280E676E050E686E43EC07F005
:101F2000636A080E626E656A440E646E676A010E2B
:101F3000666EF1EC06F01C0EF66E060EF76EE6EC21
:101F400003F0F6EC03F0656A440E646E666A1E0EDA
:101F5000676E686A43EC07F0636A090E626E656A31
:101F6000450E646E676A010E666EF1EC06F0220E95
:101F7000F66E060EF76EE6EC03F0F6EC03F0656A1B
:101F8000450E646E666A1E0E676E686A43EC07F063
:101F9000636A0A0E626E656A460E646E676A010EB7
:101FA000666EF1EC06F0280EF66E060EF76EE6ECA5
:101FB00003F0F6EC03F0656A460E646E666A1E0E68
:101FC000676E686A43EC07F0636A0B0E626E656ABF
:101FD000470E646E676A010E666EF1EC06F0300E15
:101FE000F66E060EF76EE6EC03F0F6EC03F0656AAB
:101FF000470E646E666A010E676E686A43EC07F00E
:10200000636A0C0E626E656A480E646E676A010E42
:10201000666EF1EC06F0380EF66E060EF76EE6EC24
:1020200003F0F6EC03F0656A480E646EFA0E666E15
:10203000060E676E686A43EC07F03E0EF66E060EFB
:10204000F76EE6EC03F0F6EC03F0636A0D0E626ED9
:10205000656A490E646E676A010E666EF1EC06F001
:10206000656A490E646EFA0E666E060E676E686AE1
:1020700043EC07F0636A100E626E656A570E646E79
:10208000676A040E666EF1EC06F0440EF66E060EFC
:10209000F76EE6EC03F0F6EC03F0656A570E646E3B
:1020A000696A070E686EF70E676E100E666E6D6ACF
:1020B000180E6C6E940E6B6EF80E6A6E716A070ED7
:1020C000706EF70E6F6E100E6E6E71EC07F0636A35
:1020D0000E0E626E656A420E646E676A010E666E6F
:1020E000F1EC06F04E0EF66E060EF76EE6EC03F01F
:1020F000F6EC03F0656A420E646E666A010E676E66
:10210000686E43EC07F05A0EF66E060EF76EE6ECBC
:1021100003F0F6EC03F0800EF66E060EF76EE6ECBA
:1021200003F0F6EC03F0D4EF07F0D9EF07F0EFEF90
:1021300007F0C00EF21242C06BF0F6EC07F01A2C5A
:1021400001D003D01A5002085AE14DC05CF0010ED4
:102150004D6E4E6AA80EF66E060EF76EE6EC03F0B4
:10216000F6EC03F09D8043C05DF01A2C0DD0B20E4A
:10217000F66E060EF76EE6EC03F0F6EC03F0010ED9
:1021800043261BEC08F017D01A5002080DE1B80ED8
:10219000F66E060EF76EE6EC03F0F6EC03F0010EB9
:1021A000435E1BEC08F007D01A5203E124EC08F060
:1021B00002D02FEC08F036EC08F04F9201B04F82BD
:1021C0001BA002D04FA2D1D73FEC08F05CC04EF06C
:1021D00043505D5C13E0BE0EF66E060EF76EE6EC45
:1021E00003F0F6EC03F0666A070E656E686A430E4C
:1021F000676E6A6A010E696E9BEC06F0D2D11A50C6
:10220000100820E04E50020803E11A5020081AE19D
:102210004D50020803E11A50040814E04D50020822
:1022200003E11A5008080EE04D50020803E11A506D
:10223000400808E04D50020803E11A50800802E00F
:102240004FA090D04DC062F04CEF08F0020E4D6EE2
:102250004E6ACA0EF66E060EF76EE6EC03F0F6EC6A
:1022600003F09D801A50100802E04FA039D01BECFB
:1022700008F0E00EF66E060EF76EE6EC03F0F6ECF4
:1022800003F015EC08F04FA002D04F9002D0010EE1
:10229000522652BE04D05250070801E2526AEE0E96
:1022A000F66E060EF76E050E816F4FEC04F052C00D
:1022B00066F01B0E676E54EC08F0F50EF66E060E17
:1022C000F76E050E816F4FEC04F0F6EC03F0636AD5
:1022D000520E626E02EF09F04F9001B04F8036D07F
:1022E0001A50040808E11BEC08F052C062F0636A5F
:1022F000C4EC0AF02BD01A50080809E11BEC08F0D6
:1023000052C062F0010E636EC4EC0AF01FD01A5086
:10231000400809E11BEC08F052C062F0040E636E45
:10232000C4EC0AF013D01A50800809E11BEC08F045
:1023300052C062F0020E636EC4EC0AF007D01A526B
:1023400003E124EC08F002D02FEC08F036EC08F0A2
:102350004F9401B04F841BA002D04FA483D73FEC11
:1023600008F01FD11A50200820E04E50030803E166
:102370001A5010081AE14D50030803E11A500408DE
:1023800014E04D50030803E11A5008080EE04D50C8
:10239000030803E11A50400808E04D500308D8A490
:1023A000E6D01A508008D8A4E2D04DC05EF04F8825
:1023B000030E4D6E4E6AFC0EF66E060EF76EE6ECE0
:1023C00003F0F6EC03F09D8042C05FF041C060F086
:1023D0001A5020085AE14FA830D05E2C01D02DD0E1
:1023E000036A52505DEC00F0000A02E11BB41ED0FB
:1023F000036A52505DEC00F0010804E11BB416D0F2
:102400001BB814D0036A52505DEC00F0030804E1DD
:102410001BB40CD01BB80AD0036A52505DEC00F01C
:10242000020807E11BB602D01BA803D0506A4F8AEE
:1024300003D0010E506E4F9A10D0010E502650BEA0
:102440000CD05050070809E202D000A006D04FAAD5
:1024500002D0506A02D0010E506E4F980C0EF66EEC
:10246000070EF76E0B0E816F4FEC04F050C066F054
:102470001B0E676E54EC08F0F6EC03F050C062F0EF
:10248000C3EF0BF01BEC08F030D01A50040803E047
:102490001A5080080FE1036A50505DEC00F0626E44
:1024A000636E010E646E52C065F03EEC0CF01BECE6
:1024B00008F01BD01A50080803E01A5040080EE13B
:1024C000036A50505DEC00F0626E636E646A52C045
:1024D00065F03EEC0CF01BEC08F007D01A5203E15B
:1024E00024EC08F002D02FEC08F036EC08F04F9600
:1024F00001B04F861BA002D04FA66AD73FEC08F070
:102500001A0EF66E070EF76EE6EC03F0F6EC03F02B
:1025100042505F5C13E02A0EF66E070EF76EE6EC93
:1025200003F0F6EC03F0666A0E0E656E686A420E02
:10253000676E6A6A010E696E9BEC06F04150605C42
:1025400013E03A0EF66E070EF76EE6EC03F0F6ECCB
:1025500003F0666A020E656E686A410E676E6A6A0B
:10256000010E696E9BEC06F0020E4E6E1AD01A52E6
:1025700018E04DC061F0040E4D6E480EF66E070E69
:10258000F76E1B0E816F4FEC04F01AC081F0570EEE
:10259000826F5EEC04F0F6EC03F015EC08F061C01D
:0625A0004EF0CDD5030052
:020000040030CA
:0E00000000C21A1E0007810000800FE00F40B2
:00000001FF
;PIC18F4520
;CRC=C7D2  CREATED="05-kwi-19 10:08"
