:10000000E9EF04F049324320772E616464723A25A7
:1000100078206572726F72207472792873293A257C
:100020004C75207374617475733A2564000049320D
:100030004320772E616464723A25782041434B0057
:1000400049324320722E616464723A25782041431C
:100050004B0049324320616464723A257820214183
:10006000434B0000493243206164723A25782043B3
:100070004F4C4953494F4E00556A546A5550535C92
:1000800011E303E15250545C0DE254505024016ED0
:100090005550512001C0E9FFEA6EEF6A542AD8B4E6
:1000A000552AECD71200516A040E506E536A100E96
:1000B000526EE2DF036A040EE96E03C0EAFF880EA7
:1000C000EF6E1200C69E9E9658C0C9FF020EC6BEB5
:1000D00005D09EA6FED7000EC5BC010E016E120013
:1000E000C580C5B0FED7210E006E002EFED704508D
:1000F000FE0B576E586EE6DF01C056F0210E006E03
:10010000002EFED7C584C5B4FED7210E006E002E8A
:10011000FED756C001F0C4EF01F0939E8A9E080EF0
:10012000016E00D00000018E0ED0019E5F32D8B06B
:100130008A8ED8A08A9E018C06D0019C012EF6D70B
:1001400000D000008A8E250EE96EE92EFED7000051
:1001500001BEEBD701BCF1D712000900F6CF57F072
:10016000F7CF58F0F5CF5FF0D8DF57C0F6FF58C093
:10017000F7FF562EF2D7120057BE0FD00F0E006EAB
:10018000563800160A0E005C03E2300E002602D03C
:100190005750002600C05FF0C0DF0F0E56160A0E43
:1001A000565C02E2300E02D0579E5750562656C07B
:1001B0005FF0B3DF1200EACF5EF0E9CF5DF05738B1
:1001C000F009596E5926E20F5A6E320F5C6E575085
:1001D0000F0B5A265A265C26E90F5B6E5B265B26C0
:1001E00056380F0B5B265C265B365C365C1E5C3635
:1001F00056500F0B5C265936070E586E0A0E5B06DA
:100200005C26FDE35A065B26FDE359065A26FDE30C
:1002100058065926FDE3EA6A580EE96E070E5D148A
:100220005D9CE926000EEA22E9505C0803E1EA52EF
:1002300001E15D8CEF50006E08E15DBC06D05DB859
:1002400013D05DB602D0200E03D05D865D98300ECF
:100250000026EACF57F0E9CF56F000C05FF05DDF2F
:1002600057C0EAFF56C0E9FFEE505DACDDD7E2EFC4
:1002700001F05D50016A5C5C03E25CC000F00CD0F0
:10028000006A080E5E6E5C3600365D50005CD8B0C9
:10029000006E01365E2EF7D71200200E57A8300EE2
:1002A000586E56C000F056AE08D0001E002A00C09E
:1002B00056F02D0E586E578E5780015056C05CF088
:1002C000640E5D6ED6DF00C056F0300E0124596E0C
:1002D00056C05CF00A0E5D6ECCDF300E00245B6E03
:1002E000300E01245A6E58C000F0300E595C04E004
:1002F000578257BE578412D058C059F0200E586EFE
:10030000300E5A5C04E0578057BE578207D0D8A4FD
:10031000578004E159C05AF0200E596E57B405D0E9
:1003200057B206D057B007D009D058C05FF0F5DEFD
:1003300059C05FF0F2DE5AC05FF0EFDE5BC05FF0E5
:10034000ECDEEEEF01F00D0E5F6EE7DE0A0E5F6E83
:10035000E4DE1200030E565E09E3EA6A560EE96E09
:10036000EF5004E001D000D0EF2EFDD7F6EF01F002
:10037000010E536E556A546A535239E0555237E1B3
:100380005450630834E3ACD601C053F0535227E015
:10039000040EF66E000EF76E0B0E566EDEDE04C017
:1003A00056F0570E576EE8DE110EF66E000EF76E21
:1003B0000E0E566ED2DE100EE96E55C057F054C0C8
:1003C00056F0F9D6220EF66E000EF76E080E566E37
:1003D000C4DE53C056F0180E576E5FD7B4DF010E5F
:1003E0005426000E5522FE0E566EB4D7C5D753C004
:1003F00001F00FEF02F0C69CC586C5B6FED700B06F
:10040000C59A00A0C58AC588C5B8FED7C9CF01F076
:1004100074EF02F0F29CF29EF2BEFDD7A9D701C0A4
:100420004FF04F52D8A4A0D0C580C5B0FED7210E42
:10043000006E002EFED7365202E137521AE0516AA2
:10044000506A5150375C15E303E13650505C11E2BD
:10045000040E5024E96E000E5120EA6EEFCF58F0E2
:1004600031DE210E006E002EFED7502AD8B4512A5C
:10047000E8D74E2C0ED0C582C5B2FED7210E006E35
:10048000002EFED706C058F01DDE210E006E002E95
:10049000FED7345202E1355232E0516A506A51506F
:1004A000355C2DE303E13450505C29E2010E345CED
:1004B000006E000E3558036E00C001F05150035C11
:1004C00006E303E10150505C02E2528001D05290F9
:1004D000140E5024E96E000E5120EA6E000E52B048
:1004E000010E556E006E87D701C0EFFF630E006EE0
:1004F000002EFED700D0502AD8B4512AD0D7C584B8
:10050000C5B4FED7210E006E002EFED7345217E17F
:10051000355215E12E0EF66E000EF76E0B0E566E6E
:100520001CDE04C056F0570E576E26DE3B0EF66EEC
:10053000000EF76E040E566E10DE05DF14D0400E6E
:10054000F66E000EF76E0B0E566E07DE04C056F008
:10055000570E576E11DE4D0EF66E000EF76E040E3E
:10056000566EFBDDF0DE2ED04F2C15D0520EF66EFF
:10057000000EF76E090E566EF0DD04C056F0570EF1
:10058000576EFADD5D0EF66E000EF76E050E566EB6
:10059000E4DDD9DE17D04F50020814E1640EF66E88
:1005A000000EF76E080E566ED8DD04C056F0570EDA
:1005B000576EE2DD6E0EF66E000EF76E090E566E89
:1005C000CCDDC1DE376A366A356A346AC00EF21293
:1005D0001200376A030E366E356A346A4E6A1ADFC5
:1005E000120061DD056A455044104310066EF1DFCC
:1005F00011EF05F058DD010E056E44508009100919
:100600004310066EE6DF15EF05F04DDD45C005F041
:1006100044C006F0DEDF120043C044F0020E456E17
:10062000F4DF18EF05F03FDD030E056E4350A0091F
:10063000066ECFDF1BEF05F036DD040E056E43506E
:10064000C009066EC6DF1EEF05F02DDD050E056E36
:1006500043508009066EBDDF21EF05F024DD060E54
:10066000056E0E0E066EB5DF22EF05F043C044F0B6
:10067000070E456ECADF25EF05F043C044F0080EB3
:10068000456EC3DF28EF05F043C044F0090E456E08
:10069000BCDF2BEF05F043C044F00A0E456EB5DF1A
:1006A0002EEF05F043C044F00B0E456EAEDF30EF89
:1006B00005F0F9DC0C0E056E0D0E066E8ADF31EFCB
:1006C00005F0F1DC0D0E056E435044104510461048
:1006D000066E7FDF71EF03F0436A446A456A466A3B
:1006E000F0D732EF05F0E80E4B24006E6E0E4C2072
:1006F000016E030E4D20026E000E4E20036E00347C
:100700004F6E0134506E0234516E0334526E4F36C8
:10071000503651365236FC0E4F16036A5230026E76
:100720005130016E5030006E02320132003202321E
:100730000132003202320132003202320132003222
:10074000023201320032023201320032010E021650
:1007500007EF04F0010E006E4D50016E04E0D890DA
:100760000036012EFCD70050FF0A4B144E6E4CC0D1
:1007700000F04D50016E04E0D8900036012EFCD7F9
:1007800000504E104B6E4BC001F01200516A040E27
:10079000506E536A100E526E6FDC376A060E366E5C
:1007A000356A346AC00E046E010E4D6E375203E195
:1007B00036504D5C17E2040E4D24016E036AD8B02A
:1007C000032A010E4D5C4B24E96E000E4C20EA6EAC
:1007D000EFCF50F003C0EAFF01C0E9FF50C0EFFFC8
:1007E0004D2AE4D74E6A16DE1200426A42C041F03A
:1007F00041C040F040C03FF03FC03EF046C04EF028
:1008000045C04DF044C04CF043C04BF06CD703C022
:100810004AF002C049F001C048F000C047F03EC0B5
:100820004BF04C6A070E4D6E95DF01C03EF03EC0A6
:100830004BF04C6A060E4D6E8DDF01C03EF0485005
:100840003F0B006E00503E1247C03FF040C04BF0DF
:100850004C6A070E4D6E7EDF01C040F0408A40C0FA
:100860004BF0010E4C6E040E4D6E74DF01C040F073
:1008700040C04BF04C6A030E4D6E6CDF01C040F07F
:1008800040C04BF04C6A020E4D6E64DF01C040F078
:1008900040C04BF04C6A010E4D6E5CDF01C040F071
:1008A00040C04BF04C6A4D6A55DF01C040F041C07A
:1008B0004BF04C6A070E4D6E4DDF01C041F041C058
:1008C0004BF04C6A060E4D6E45DF01C041F041C051
:1008D0004BF04C6A050E4D6E3DDF01C041F041C04A
:1008E0004BF0010E4C6E040E4D6E34DF01C041F032
:1008F00041C04BF0010E4C6E030E4D6E2BDF01C05C
:1009000041F041C04BF0010E4C6E020E4D6E22DFE5
:1009100001C041F041C04BF04C6A010E4D6E1ADF30
:1009200001C041F041C04BF0010E4C6E4D6A12DF28
:1009300001C041F042C04BF04C6A070E4D6E0ADF19
:1009400001C042F042C04BF0010E4C6E060E4D6EDF
:1009500001DF01C042F04C6A3E0E4B6E17DF3BEFE9
:1009600005F0EA6A440EE96EEF500DE0060E016EE6
:10097000006A002EFED7012EFBD77B0E006E002EE4
:10098000FED7EF2EF3D740EF05F0036A43503E0F3A
:10099000016E000E032201C046F003C047F0036A57
:1009A00043503E0FE96E000E0320EA6EEFCF4BF08E
:1009B00044C04CF045C04DF0CDDE47C0EAFF46C014
:1009C000E9FF01C0EFFF4C6A3E0E4B6EDFDE49EFE0
:1009D00005F0F86AD09E94869488310EC86E280E71
:1009E000C66EC78EC79CB886560EAF6E000EB06E30
:1009F000A60EAC6E900EAB6E00000000939E8A8E29
:100A0000C150C00B0F09C16E070EB46E386A396A47
:100A10009D8AC00EF212010E436E446A800E456E2E
:100A2000E0D5436A200E446EE5D5110E436EF4D531
:100A30001E0E436EF8D51E0E436EFED51E0E436E7F
:100A400004D60CD61E0E436E11D61E0E436E15D65E
:100A50001E0E436E19D61E0E436E1DD6436A22D655
:100A600028D63AD6050E466EF80E456EEE0E446E4A
:100A7000400E436EBAD6140E436EFA0E446E71D712
:100A8000432EFBD7030E436E010E446E060E456ED9
:0E0A90007CD74C6A3E0E4B6E79DEFFD703001A
:020000040030CA
:0E00000000C21E1E008781000FC00FE00F40DF
:00000001FF
;PIC18F4520
;CRC=96CE  CREATED="17-kwi-19 20:26"
