:1000000039EF01F0504F5A59434A41205A474F4463
:100010004E412025643A2020200D0A0D0A0D0A00C9
:10002000574152544F8CC6205A474F444E413A20B4
:100030002563202563202563202563200D0A0D0AF2
:100040000D0A0000706F732B6C656E6768743A2040
:100050002564200D0A0057796E696B2025643A20CB
:1000600020200D0A0D0A0D0A000057796E696B20D9
:1000700025643A2020200D0A0D0A0D0A0000577948
:100080006E696B2025643A2020200D0A0D0A0D0AA6
:10009000000057796E696B2025643A2020200D0AF4
:1000A0000D0A0D0A0000524553504F4E5320766101
:1000B0006C75652025643A2020200D0A0D0A0D0A72
:1000C0000000526573705F4D6573736167655F44CF
:1000D0005232000069C06FF068C06EF06BC071F002
:1000E0006AC070F06D5203E16C50000830E26EC0DF
:1000F000E9FF6FC0EAFFEFCF72F071C003F070C08C
:10010000E9FF71C0EAFFEF50725C16E06FC003F0C8
:100110006EC0E9FF03C0EAFFEFCF72F071C003F0D9
:1001200070C0E9FF71C0EAFFEF50725C02E2FF0E9F
:1001300001D0010E016E0DD06E2AD8B46F2A702A3C
:10014000D8B4712A6C50D8B46D066C06CBD7000EAB
:10015000016E12000900F6CF6BF0F7CF6CF0F5508E
:100160009EA8FED7AD6E6BC0F6FF6CC0F7FF6A2E7F
:10017000F1D712006E50016A6D5C03E26DC000F0B1
:100180000CD0006A080E6F6E6D3600366E50005C43
:10019000D8B0006E01366F2EF7D71200200E68A877
:1001A000300E696E67C000F067AE08D0001E002AEE
:1001B00000C067F02D0E696E688E6880015067C0C0
:1001C0006DF0640E6E6ED6DF00C067F0300E012455
:1001D0006A6E67C06DF00A0E6E6ECCDF300E0024C2
:1001E0006C6E300E01246B6E69C000F0300E6A5CDC
:1001F00004E0688268BE688412D069C06AF0200E8C
:10020000696E300E6B5C04E0688068BE688207D05F
:10021000D8A4688004E16AC06BF0200E6A6E68B4EE
:1002200005D068B207D068B009D00CD069509EA83C
:10023000FED7AD6E6A509EA8FED7AD6E6B509EA8DD
:10024000FED7AD6E6C509EA8FED7AD6E12000900B1
:10025000F5520DE0F6CF66F0F7CF67F0F5509EA8A7
:10026000FED7AD6E66C0F6FF67C0F7FFF0D7DFEFD1
:1002700002F0F86AD09EB886080EAF6E020EB06E1D
:10028000A60EAC6E900EAB6E000000005D6A5C6A5C
:10029000C150C00B0F09C16E070EB46E2ED05700AF
:1002A0000507007461746100003E0D02450D036591
:1002B0000D0D50200E530D0F5420014E440D0443DC
:1002C000460D0542430D0644460D0746490D0852AA
:1002D0004F0D09464F0D0A4E450D0B464E0D104E63
:1002E000550D114444310D124444320D1344523122
:1002F0000D144452320D00000000000EF86E020E84
:10030000F76E9E0EF66E0900F550006E000A13E0BF
:100310000900F550016EE8BE05D00F0BEA6E09002A
:10032000F5CFE9FF01BC090001AC0900F5CFEEFFF4
:10033000004EE9D7F9D7F86A440E5E6E520E5F6E32
:10034000320E606E0D0E616E040E626E656A625052
:1003500065244E08D8A09CD00C0E6524666E676A92
:10036000D8B0672A67C069F0686E6B6A5E0E6A6E05
:100370006D6A62C06CF0AEDE01C063F06352D8A457
:1003800085D0040EF66E000EF76E0F0E6A6EE2DE7A
:1003900065C067F0180E686E01DF150EF66E000E70
:1003A000F76E0A0E6A6ED6DE036A65500C0FE96EB0
:1003B000000E0320EA6EEFCF66F0010E6524036A9B
:1003C0000C0FE96E000E0320EA6EEFCF67F0020E0D
:1003D0006524036A0C0FE96E000E0320EA6EEFCF6E
:1003E00068F0030E6524036A0C0FE96E000E03200B
:1003F000EA6EEFCF69F0200EF66E000EF76E100E6B
:100400006A6EA8DE66509EA8FED7AD6E200E9EA82E
:10041000FED7AD6E67509EA8FED7AD6E200E9EA88B
:10042000FED7AD6E68509EA8FED7AD6E200E9EA87A
:10043000FED7AD6E69509EA8FED7AD6E3B0EF66E30
:10044000000EF76E070E6A6E85DE62506524666EDA
:10045000440EF66E000EF76E0C0E6A6E7BDE66C002
:1004600067F0180E686E9ADE520EF66E000EF76E8A
:10047000030E6A6E6FDE010E655C036A0C0FE96E97
:10048000000E0320EA6EEFCF64F002D0652A5FD73A
:10049000696A0C0E686E6B6A5E0E6A6E6D6A62C087
:1004A0006CF018DE01C063F0560EF66E000EF76EAB
:1004B000060E6A6E4FDE63C067F0180E686E6EDE61
:1004C0005E0EF66E000EF76E0A0E6A6E43DE696A05
:1004D0000D0E686E6B6A5E0E6A6E6D6A62C06CF0BD
:1004E000F9DD01C063F06A0EF66E000EF76E060EBF
:1004F0006A6E30DE63C067F0180E686E4FDE720EF3
:10050000F66E000EF76E0A0E6A6E24DE696A0E0E33
:10051000686E6B6A5E0E6A6E6D6A62C06CF0DADDE0
:1005200001C063F07E0EF66E000EF76E060E6A6E68
:1005300011DE63C067F0180E686E30DE860EF66E50
:10054000000EF76E0A0E6A6E05DE696A0F0E686E9F
:100550006B6A5E0E6A6E6D6A62C06CF0BBDD01C0D4
:1005600063F0920EF66E000EF76E060E6A6EF2DD06
:1005700063C067F0180E686E11DE9A0EF66E000EFC
:10058000F76E0A0E6A6EE6DDA60EF66E000EF76EC8
:100590000E0E6A6EDFDD64C067F0180E686EFEDD59
:1005A000B60EF66E000EF76E0A0E6A6ED3DD64505C
:1005B000140805E1C20EF66E000EF76E48D606C0AE
:1005C00003F005C0E9FF06C0EAFFEFCF66F0665012
:1005D0009EA8FED7AD6E010E676E180E686EDEDD4A
:0405E000FFD703003E
:020000040030CA
:0E00000000C21E1E000781000FC00FE00F405F
:00000001FF
;PIC18F4520
;CRC=635D  CREATED="18-gru-17 14:44"
