:1000000000308A0018280000223084008313000882
:10001000031917280630F800F701F70B0D28F80B25
:100020000C287B30F700F70B1328800B0A280800F8
:1000300003081F3983000A3083169900A630980000
:1000400090308312980083161F149F141F159F1160
:1000500083130510831205100430A100FA30A200AA
:100060000420A10B2E2883160510831205140430DA
:10007000A100FA30A2000420A10B392861300C1E27
:0A0080003F28990083162928630029
:02400E00723FFF
:00000001FF
;PIC16F877
;CRC=1519  CREATED="06-maj-18 16:57"
