:1000000003308A00CF2B0000491943107717613263
:100010006439BA127810C1214B10000049194310FD
:10002000721761326439BA127810C1214B10000185
:100030004919431061326439BA127810A120C325DE
:100040002000491943106132721D253CA0214F2622
:10005000C929C9274E100000B13974100000E830DA
:10006000840083130008031942280630F800F701C2
:10007000F70B3828F80B37287B30F700F70B3E28B2
:10008000800B352808000B08FA008B1383168613A3
:10009000831286130830F8004D280000F8176028F6
:1000A000F8138316EB0C831203188617031C8613B0
:1000B000781760287813F80B51285E2800008617FF
:1000C000A7308400840B62286528F81B5028781B11
:1000D0005A28FA1B8B1708000B088316E0008312BE
:1000E0008B13831603178C170C14000000000313E6
:1000F000E01F7D2883128B178316831203170C08C9
:100100007F390319DE2883160313E00083120317D7
:100110000D0883160313E100831203170F088316DB
:100120000313E2006008EB0083124320831661088A
:10013000831203178D0083160313620883120317BB
:100140008F0003130B088316E30083128B138316AF
:1001500003178C170C14000000000313E31FB328CF
:1001600083128B178316831203170C0D0E0D7F3924
:100170000319DE2883160313E000831203170D080A
:1001800083160313E100831203170F08831603136A
:10019000E2006008EB00831243208316610883129B
:1001A00003178D00831603136208831203178F0051
:1001B0008D0A03198F0A03136C28031703138A117E
:1001C0000A12F12BFA012030840083137A18831766
:1001D000A030800008000830F800000008108316E6
:1001E00008100000E80D83128810031CFA288316FB
:1001F000881483120318FF2883168810831283162D
:1002000008148312081C0229F80BED2800000810BE
:1002100083160810000088140000000008148312E0
:10022000081C1029F801000088187814081083169B
:1002300008108312881083168810831208000B0898
:100240008316E80083128B13831603178C170C1484
:10025000000000000313E81F302983128B17831658
:1002600003186929831203170C087F3983160313B7
:10027000E800831203170D0883160313E9008312A5
:1002800003170F0883160313EA006808EB008312B4
:10029000432083166908831203178D008316031306
:1002A0006A08831203178F0003130B088316EB00F1
:1002B00083128B13831603178C170C140000000095
:1002C0000313EB1F662983128B178316E70B69292B
:1002D0009729831203170C0D0E0D7F398316031314
:1002E000E800831203170D0883160313E900831235
:1002F00003170F0883160313EA006808EB00831244
:10030000432083166908831203178D008316031395
:100310006A08831203178F008D0A03198F0A0310CE
:1003200083160313E70B9529972983121F2983123C
:1003300008008316E81BAE290F30F700670EF7059B
:100340000A3077020318A7293030F707A92968086F
:10035000F7077708EB008312432083160F30E70579
:100360000A3067020318B6293030B829E813680844
:10037000E7076708EB00831243200800E701E60166
:10038000E5010530E400E301E201E101E00183164B
:10039000E30183120B138B138B1BCB2901308316C4
:1003A000E400E501E4080319122A6508633C031C14
:1003B000122A881400000814000083128810831683
:1003C0008810000083120810831608102130F700EF
:1003D000F70BE829831220088316E8008312EB202C
:1003E000780883166710781867142130F700F70B28
:1003F000F7298810000008148312081CFD2900004A
:10040000012A00008316881400002130F700F70B42
:10041000072A003067180130F8007808E40001303E
:10042000E507D229E408031D482B881400000814AE
:1004300000008312881083168810000083120810B1
:10044000831608102130F700F70B242A8312E408E2
:10045000031D332AE508031D332AE608031D332A4A
:10046000E7080319572A8316E6018312E708031DDC
:10047000452AE608031D452AE508031D452A6408A8
:10048000831666020318562A8312203083166607E5
:10049000840083130008E700E8008312EB2021307A
:1004A000F700F70B512A8316E60A352A83128316C2
:1004B000630B782A88140000081400008312081CBB
:1004C0005F2A881083168810000083120810831694
:1004D00008102130F700F70B6B2A831222088316CD
:1004E000E8008312EB202130F700F70B752A831602
:1004F0008312E008031D852AE108031D852AE2080E
:10050000031D852AE3080319D52A8316E601831201
:10051000E308031D972AE208031D972AE108031D3B
:10052000972A6008831666020318D42A8312A03023
:1005300083166607840083130130F7000830EA0051
:100540007708EB008814000008148312081CA62A00
:1005500088180314881C0310F80D00008316081077
:10056000831208108316EA0BA22A88140000831253
:10057000881083166B08031D88100000081483126E
:10058000081CC02A000008108316081000008312FF
:10059000881083168810780880006330F700F70B06
:1005A000CF2AD22AE60A872A8312831688100000EF
:1005B00008148312081CDA2A0000DE2A00008316C1
:1005C000881400002130F700F70BE42A8312E008BA
:1005D000031D1E2BE108031D1E2BE208031D1E2B0D
:1005E000E308031D1E2B043003178D0000308F001D
:1005F00003100B3083160313E70083121F2120081A
:100600008316E7005730E800831299210A30031758
:100610008D0000308F000314053083160313E700AC
:1006200083121F2102308316E700FA30E80083129C
:100630002F208316E70B152B472B83120E30031741
:100640008D0000308F0003100B3083160313E7007A
:1006500083121F2120088316E7005730E800831219
:100660009921143003178D0000308F0003140530DA
:1006700083160313E70083121F2102308316E7005D
:10068000FA30E80083122F208316E70B402BA32BB0
:10069000640B752B1830831203178D0000308F0008
:1006A0000310093083160313E70083121F2120086B
:1006B0008316E7005730E800831299211D30031795
:1006C0008D0000308F000314063083160313E700FB
:1006D00083121F2102308316E700FA30E8008312EC
:1006E0002F208316E70B6D2BA32B6408023C031D00
:1006F000A32B2130831203178D0000308F000310CD
:10070000083083160313E70083121F212008831685
:10071000E7005730E80083129921263003178D0037
:1007200000308F0003100A3083160313E700831292
:100730001F2102308316E700FA30E80083122F20D1
:100740008316E70B9C2B8312E701E601E501E40128
:10075000E301E201E101E001C0308B040800E22086
:100760000530A100831660088312A2008316610879
:100770008312A300831662088312A400BE2108001E
:10078000E2200330A100831660088312A2008316C2
:1007900061088312A300BE218A110A121C2C0308CF
:1007A0001F3983008316861383128617E901E80137
:1007B000FF30EA0083161F149F141F159F11831327
:1007C0000830E000FA30E80083122F208316E00B97
:1007D000E22B2C30831203178D0000308F0003139F
:1007E0006C2802308316E000FA30E80083122F20D4
:1007F0008316E00BF42B0130E0000430E1000730F9
:10080000E2008312AF230A308316E000FA30E800DA
:1008100083122F208316E00B062C0230E0000430F8
:10082000E1000530E2008312AF2301308316E000BF
:100830000430E1008312C02B6A106A088316870017
:100840008312071004308316E000FA30E8008312A8
:100850002F208316E00B252C83126A106A0883165A
:1008600087008312071404308316E000FA30E80092
:1008700083122F208316E00B362C83121C2C63006E
:02400E00723B03
:00000001FF
;PIC16F877
;CRC=F4A4  CREATED="03-lis-16 13:04"
