:0400000042EF01F0DA
:08000800046ED8CF05F0E0CF33
:1000100006F00001E9CF0CF0EACF07F0E1CF08F0DD
:10002000E2CF09F0D9CF0AF0DACF0BF0F3CF12F01C
:10003000F4CF13F0FACF14F0F5CF15F0F6CF16F099
:10004000F7CF17F000C00EF001C00FF002C010F0A3
:1000500003C011F09DAA30EF00F09EBA6DEF00F0E2
:100060000EC000F00FC001F010C002F011C003F08C
:100070000CC0E9FF07C0EAFF078E08C0E1FF09C016
:10008000E2FF0AC0D9FF0BC0DAFF12C0F3FF13C0B2
:10009000F4FF14C0FAFF15C0F5FF16C0F6FF17C035
:1000A000F7FF045006C0E0FF05C0D8FF10000101B3
:1000B0002551016A245D03E224C100F00CD0006ADE
:1000C000080E266F243700362551005CD8B0006E2C
:1000D0000136262FF7D700011200036A01011551DE
:1000E0001A0FE96E000E0320EA6E9EAAFED7AECF6D
:1000F000EFFF15C121F1010E1525236F246FFB0EB3
:10010000256F0001D4DF00C015F101011651155D06
:1001100003E121C115F1178117839E9A000130EF89
:1001200000F00D0A52756E6E696E672E2E2E0D0A46
:1001300000002121212055415254204F564552465E
:100140004C4F5745442C2072657065617420636F75
:100150006D6D616E64200D0A00005541525420649B
:100160006174613A200000000900F5520DE0F6CFFD
:100170001BF1F7CF1CF1F5509EA8FED7AD6E1BC149
:10018000F6FF1CC1F7FFF0D768EF01F0010EEA6E31
:100190001B0EE96EEF500DE0060E016E006A002E98
:1001A000FED7012EFBD77B0E006E002EFED7EF2E62
:1001B000F3D71200939E8A9E080E016E00D00000B5
:1001C000018E10D0019E01011D330001D8B08A8E2E
:1001D000D8A08A9E018C06D0019C012EF4D700D0B5
:1001E00000008A8E250EE96EE92EFED7000001BEC2
:1001F000E9D701BCF1D712000900F5520CE0F6CFA7
:100200001BF1F7CF1CF1F5CF1DF1D4DF1BC1F6FFB9
:100210001CC1F7FFF1D7120001011651155DFDE079
:10022000036A16511A0FE96E000E0320EA6EEFCF33
:100230001BF1010E16251D6F196AF2BE198EF29E72
:10024000246FFB0E256F000132DF19BEF28E00C055
:1002500016F101011BC101F0000193EF01F0EF5213
:100260000FE0EACF1CF1E9CF1BF1EFCF1DF1A2DFC8
:100270001CC1EAFF1BC1E9FFE92AD8B4EA2AEFD77B
:10028000AFEF01F0F86AD09E078EB886560EAF6EBB
:10029000000EB06EA60EAC6E900EAB6E00000000AD
:1002A000939E8A8E0101156B166B17911793196B2C
:1002B000186BC150C00B0F09C16E070EB46E9D8A3A
:1002C000C00EF212220EF66E010EF76E00014CD730
:1002D000010117A351D015C11AF1640E1B6F000163
:1002E00055DF010115511A5D08E015C11AF1640EC0
:1002F0001B6F00014BDFF5D7010117A108D0179143
:10030000320EF66E010EF76E000176DF01015A0E15
:10031000F66E010EF76E00016FDF01011651155DDB
:1003200009E0000179D701C01BF101C01DF142DFD6
:10033000F4D701011793660EF66E010EF76E0001F9
:100340005BDF0D0E01011D6F000134DF0A0E01019C
:100350001D6F00012FDFEA6A010EE96E80D70D0ED6
:1003600001011D6F000126DF0A0E01011D6F000152
:0C03700021DF0101156B166BACD70300F8
:020000040030CA
:0E00000000C21E1E008781000FC00FE00F40DF
:00000001FF
;PIC18F4520
;CRC=DC62  CREATED="05-paü-17 09:37"
