:1000000000308A007B280000532A41295410D6185A
:10001000AE192E172E000B08A2008B1383160317A0
:100020008C170C140000000083120313A21B8B1703
:1000300003170C087F39031961280313A200031763
:100040000D080313A30003170F080313A4002208CD
:100050000C1E28289900230803178D000313240879
:1000600003178F0003130B08A5008B1383160317C8
:100070008C170C140000000083120313A51B8B17B0
:1000800003170C0D0E0D7F39031961280313A2000D
:1000900003170D080313A30003170F080313A4008D
:1000A00022080C1E51289900230803178D00031302
:1000B000240803178F008D0A03198F0A03130B28D6
:1000C000031703138A110A1299282330840083131B
:1000D0000008031978280630F800F701F70B6E289E
:1000E000F80B6D287B30F700F70B7428800B6B281A
:1000F0008A110A129E2803081F39830015308316BF
:100100009900A6309800903083129800A101A001B8
:1001100083161F149F141F159F1183130614831237
:10012000061CA028043003178D0000308F00031335
:100130000B281430A200FA30A3006528A20B9B28DC
:0601400083168E28630007
:02400E00723FFF
:00000001FF
;PIC16F877
;CRC=7C13  CREATED="04-paü-17 12:02"
